{
  "contractName": "cdpcds",
  "abi": [
    {
      "constant": false,
      "inputs": [
        {
          "name": "_takerCollateral",
          "type": "uint256"
        },
        {
          "name": "_premium",
          "type": "uint256"
        }
      ],
      "name": "makeCDSOrder",
      "outputs": [],
      "payable": true,
      "stateMutability": "payable",
      "type": "function"
    },
    {
      "constant": false,
      "inputs": [
        {
          "name": "_ID",
          "type": "uint256"
        }
      ],
      "name": "fillCDSOrder",
      "outputs": [
        {
          "name": "",
          "type": "bool"
        }
      ],
      "payable": true,
      "stateMutability": "payable",
      "type": "function"
    },
    {
      "constant": false,
      "inputs": [
        {
          "name": "_ID",
          "type": "uint256"
        }
      ],
      "name": "cancelCDSOrder",
      "outputs": [
        {
          "name": "",
          "type": "bool"
        }
      ],
      "payable": false,
      "stateMutability": "nonpayable",
      "type": "function"
    },
    {
      "constant": false,
      "inputs": [
        {
          "name": "_ID",
          "type": "uint256"
        }
      ],
      "name": "addMakerCollateral",
      "outputs": [
        {
          "name": "",
          "type": "bool"
        }
      ],
      "payable": true,
      "stateMutability": "payable",
      "type": "function"
    },
    {
      "constant": false,
      "inputs": [
        {
          "name": "_ID",
          "type": "uint256"
        },
        {
          "name": "_to",
          "type": "address"
        }
      ],
      "name": "addMakerCollateralTo",
      "outputs": [
        {
          "name": "",
          "type": "bool"
        }
      ],
      "payable": true,
      "stateMutability": "payable",
      "type": "function"
    },
    {
      "constant": false,
      "inputs": [
        {
          "name": "_ID",
          "type": "uint256"
        }
      ],
      "name": "addTakerCollateral",
      "outputs": [
        {
          "name": "",
          "type": "bool"
        }
      ],
      "payable": true,
      "stateMutability": "payable",
      "type": "function"
    },
    {
      "constant": false,
      "inputs": [
        {
          "name": "_ID",
          "type": "uint256"
        },
        {
          "name": "_to",
          "type": "address"
        }
      ],
      "name": "addTakerCollateralTo",
      "outputs": [
        {
          "name": "",
          "type": "bool"
        }
      ],
      "payable": true,
      "stateMutability": "payable",
      "type": "function"
    },
    {
      "constant": false,
      "inputs": [
        {
          "name": "_ID",
          "type": "uint256"
        }
      ],
      "name": "close",
      "outputs": [],
      "payable": false,
      "stateMutability": "nonpayable",
      "type": "function"
    },
    {
      "constant": false,
      "inputs": [
        {
          "name": "_ID",
          "type": "uint256"
        }
      ],
      "name": "requestPremium",
      "outputs": [
        {
          "name": "",
          "type": "bool"
        }
      ],
      "payable": false,
      "stateMutability": "nonpayable",
      "type": "function"
    }
  ],
  "bytecode": "0x6080604052600060025534801561001557600080fd5b50611225806100256000396000f300608060405260043610610099576000357c0100000000000000000000000000000000000000000000000000000000900463ffffffff1680630aebeb4e1461009e578063310d0b37146100cb5780633ebef088146100f5578063453312e31461014d5780638134684f146101a557806386a7d2f1146101dd578063ccf75bcd14610222578063d3052cb71461025a578063e029c72c1461029f575b600080fd5b3480156100aa57600080fd5b506100c9600480360381019080803590602001909291905050506102d7565b005b6100f36004803603810190808035906020019092919080359060200190929190505050610486565b005b61013360048036038101908080359060200190929190803573ffffffffffffffffffffffffffffffffffffffff16906020019092919050505061070c565b604051808215151515815260200191505060405180910390f35b61018b60048036038101908080359060200190929190803573ffffffffffffffffffffffffffffffffffffffff1690602001909291905050506107bb565b604051808215151515815260200191505060405180910390f35b6101c36004803603810190808035906020019092919050505061086a565b604051808215151515815260200191505060405180910390f35b3480156101e957600080fd5b5061020860048036038101908080359060200190929190505050610918565b604051808215151515815260200191505060405180910390f35b61024060048036038101908080359060200190929190505050610a71565b604051808215151515815260200191505060405180910390f35b34801561026657600080fd5b5061028560048036038101908080359060200190929190505050610dbd565b604051808215151515815260200191505060405180910390f35b6102bd60048036038101908080359060200190929190505050610ff2565b604051808215151515815260200191505060405180910390f35b42600080838152602001908152602001600020600c0154118061032357506000808281526020019081526020016000206009015460008083815260200190815260200160002060080154105b1561039c5760008082815260200190815260200160002060000160009054906101000a900473ffffffffffffffffffffffffffffffffffffffff1673ffffffffffffffffffffffffffffffffffffffff163373ffffffffffffffffffffffffffffffffffffffff1614151561039757600080fd5b610483565b3373ffffffffffffffffffffffffffffffffffffffff166108fc600080848152602001908152602001600020600701549081150290604051600060405180830381858888f193505050501580156103f7573d6000803e3d6000fd5b50600080600083815260200190815260200160002060050160006101000a81548160ff021916908315150217905550600080600083815260200190815260200160002060050160026101000a81548160ff021916908315150217905550600160008083815260200190815260200160002060050160016101000a81548160ff0219169083151502179055505b50565b60008066038d7ea4c68000341015151561049f57600080fd5b6104b360c8346110a090919063ffffffff16565b91503490506104cb82826110b690919063ffffffff16565b90506101e0604051908101604052803373ffffffffffffffffffffffffffffffffffffffff168152602001600073ffffffffffffffffffffffffffffffffffffffff168152602001828152602001858152602001848152602001600015158152602001600115158152602001600015158152602001600254815260200183815260200160008152602001600081526020016000815260200162093a8081526020016105826276a700426110cf90919063ffffffff16565b815250600080600254815260200190815260200160002060008201518160000160006101000a81548173ffffffffffffffffffffffffffffffffffffffff021916908373ffffffffffffffffffffffffffffffffffffffff16021790555060208201518160010160006101000a81548173ffffffffffffffffffffffffffffffffffffffff021916908373ffffffffffffffffffffffffffffffffffffffff16021790555060408201518160020155606082015181600301556080820151816004015560a08201518160050160006101000a81548160ff02191690831515021790555060c08201518160050160016101000a81548160ff02191690831515021790555060e08201518160050160026101000a81548160ff021916908315150217905550610100820151816006015561012082015181600701556101408201518160080155610160820151816009015561018082015181600a01556101a082015181600b01556101c082015181600c0155905050600160026000828254019250508190555050505050565b600080341015151561071d57600080fd5b60008084815260200190815260200160002060000160009054906101000a900473ffffffffffffffffffffffffffffffffffffffff1673ffffffffffffffffffffffffffffffffffffffff168273ffffffffffffffffffffffffffffffffffffffff1614151561078c57600080fd5b6107b434600080868152602001908152602001600020600201546110cf90919063ffffffff16565b5092915050565b60008034101515156107cc57600080fd5b60008084815260200190815260200160002060010160009054906101000a900473ffffffffffffffffffffffffffffffffffffffff1673ffffffffffffffffffffffffffffffffffffffff168273ffffffffffffffffffffffffffffffffffffffff1614151561083b57600080fd5b61086334600080868152602001908152602001600020600301546110cf90919063ffffffff16565b5092915050565b600080341015151561087b57600080fd5b60008083815260200190815260200160002060010160009054906101000a900473ffffffffffffffffffffffffffffffffffffffff1673ffffffffffffffffffffffffffffffffffffffff163373ffffffffffffffffffffffffffffffffffffffff161415156108ea57600080fd5b61091234600080858152602001908152602001600020600301546110cf90919063ffffffff16565b50919050565b6000803373ffffffffffffffffffffffffffffffffffffffff1660008085815260200190815260200160002060000160009054906101000a900473ffffffffffffffffffffffffffffffffffffffff1673ffffffffffffffffffffffffffffffffffffffff1614151561098a57600080fd5b600080600085815260200190815260200160002060050160026101000a81548160ff02191690831515021790555060008084815260200190815260200160002060020154905060008060008581526020019081526020016000206002018190555060008084815260200190815260200160002060000160009054906101000a900473ffffffffffffffffffffffffffffffffffffffff1673ffffffffffffffffffffffffffffffffffffffff166108fc829081150290604051600060405180830381858888f19350505050158015610a66573d6000803e3d6000fd5b506001915050919050565b6000806000838152602001908152602001600020600301543410151515610a9757600080fd5b6001151560008084815260200190815260200160002060050160029054906101000a900460ff161515141515610acc57600080fd5b42600080848152602001908152602001600020600a0181905550600160008084815260200190815260200160002060050160006101000a81548160ff021916908315150217905550600080600084815260200190815260200160002060050160026101000a81548160ff0219169083151502179055503360008084815260200190815260200160002060010160006101000a81548173ffffffffffffffffffffffffffffffffffffffff021916908373ffffffffffffffffffffffffffffffffffffffff160217905550600080838152602001908152602001600020600160003373ffffffffffffffffffffffffffffffffffffffff1673ffffffffffffffffffffffffffffffffffffffff16815260200190815260200160002060008481526020019081526020016000206000820160009054906101000a900473ffffffffffffffffffffffffffffffffffffffff168160000160006101000a81548173ffffffffffffffffffffffffffffffffffffffff021916908373ffffffffffffffffffffffffffffffffffffffff1602179055506001820160009054906101000a900473ffffffffffffffffffffffffffffffffffffffff168160010160006101000a81548173ffffffffffffffffffffffffffffffffffffffff021916908373ffffffffffffffffffffffffffffffffffffffff1602179055506002820154816002015560038201548160030155600482015481600401556005820160009054906101000a900460ff168160050160006101000a81548160ff0219169083151502179055506005820160019054906101000a900460ff168160050160016101000a81548160ff0219169083151502179055506005820160029054906101000a900460ff168160050160026101000a81548160ff02191690831515021790555060068201548160060155600782015481600701556008820154816008015560098201548160090155600a82015481600a0155600b82015481600b0155600c82015481600c015590505060019050919050565b6000806000610dcb846110eb565b9150600082111515610ddc57600080fd5b60008085815260200190815260200160002060030154821115610f4557600080858152602001908152602001600020600301549050600080600086815260200190815260200160002060030181905550600160008086815260200190815260200160002060050160016101000a81548160ff021916908315150217905550600080600086815260200190815260200160002060050160006101000a81548160ff021916908315150217905550600080600086815260200190815260200160002060050160026101000a81548160ff0219169083151502179055506000811115610f3c5760008085815260200190815260200160002060000160009054906101000a900473ffffffffffffffffffffffffffffffffffffffff1673ffffffffffffffffffffffffffffffffffffffff166108fc829081150290604051600060405180830381858888f19350505050158015610f3a573d6000803e3d6000fd5b505b60019250610feb565b60008085815260200190815260200160002060000160009054906101000a900473ffffffffffffffffffffffffffffffffffffffff1673ffffffffffffffffffffffffffffffffffffffff166108fc839081150290604051600060405180830381858888f19350505050158015610fc0573d6000803e3d6000fd5b50610fe982600080878152602001908152602001600020600801546110cf90919063ffffffff16565b505b5050919050565b600080341015151561100357600080fd5b60008083815260200190815260200160002060000160009054906101000a900473ffffffffffffffffffffffffffffffffffffffff1673ffffffffffffffffffffffffffffffffffffffff163373ffffffffffffffffffffffffffffffffffffffff1614151561107257600080fd5b61109a34600080858152602001908152602001600020600201546110cf90919063ffffffff16565b50919050565b600081838115156110ad57fe5b04905092915050565b60008282111515156110c457fe5b818303905092915050565b600081830190508281101515156110e257fe5b80905092915050565b600080600080600080600080888152602001908152602001600020600a0154945042935061112285856110b690919063ffffffff16565b9250611161611152620151806000808b8152602001908152602001600020600b01546111c190919063ffffffff16565b846110a090919063ffffffff16565b91506111b2600080898152602001908152602001600020600801546111a46000808b815260200190815260200160002060040154856111c190919063ffffffff16565b6110b690919063ffffffff16565b90508095505050505050919050565b6000808314156111d457600090506111f3565b81830290508183828115156111e557fe5b041415156111ef57fe5b8090505b929150505600a165627a7a72305820d225f559724cd806ee02b8a3a84b876b27df8eb0d34e29bcbc487d24627272950029",
  "source": "pragma solidity ^0.4.24;\r\n\r\nimport \"../node_modules/zeppelin-solidity/contracts/math/SafeMath.sol\";\r\n\r\ncontract cdpcds {\r\n\r\n    using SafeMath for uint256;\r\n\r\n    struct CDS {\r\n        address maker;\r\n        address taker;\r\n        uint makerCollateral;\r\n        uint takerCollateral;\r\n        uint premium;\r\n        bool matched;\r\n        bool closed;\r\n        bool matchable;\r\n        uint orderID;\r\n        uint expirationBounty;\r\n        uint payed;\r\n        uint owed;\r\n        uint filledTime;\r\n        uint payPeriod;\r\n        uint expiration;\r\n    }\r\n\r\n    mapping(uint => CDS)allCDSs;\r\n    mapping(address => mapping(uint => CDS))holdings;\r\n\r\n    uint currentID = 0; \r\n   \r\n    function makeCDSOrder(uint _takerCollateral, uint _premium) public payable {\r\n        require(msg.value >= 1000000000000000);\r\n        uint expirationBounty = msg.value.div(200);\r\n        uint collateral = msg.value;\r\n        collateral = collateral.sub(expirationBounty);\r\n        allCDSs[currentID] = CDS(msg.sender, 0x0, collateral, _takerCollateral, _premium, false, true,false, currentID, expirationBounty, 0, 0, 0, 7 days,now.add(90 days));\r\n        currentID += 1;\r\n    }\r\n\r\n    function fillCDSOrder(uint _ID)public payable returns (bool){\r\n        require (msg.value >= allCDSs[_ID].takerCollateral);\r\n        require(allCDSs[_ID].matchable==true);\r\n        allCDSs[_ID].filledTime = block.timestamp;\r\n        allCDSs[_ID].matched = true;\r\n        allCDSs[_ID].matchable = false;\r\n        allCDSs[_ID].taker = msg.sender;\r\n        holdings[msg.sender][_ID] = allCDSs[_ID];\r\n\r\n        \r\n        return true;\r\n    }\r\n\r\n    function cancelCDSOrder(uint _ID) public returns (bool){\r\n        require(allCDSs[_ID].maker == msg.sender);\r\n        allCDSs[_ID].matchable =false ;\r\n        uint toTransfer = allCDSs[_ID].makerCollateral;\r\n        allCDSs[_ID].makerCollateral = 0;\r\n        allCDSs[_ID].maker.transfer(toTransfer);\r\n        return true;        \r\n    }\r\n    \r\n    function addMakerCollateral(uint _ID)public payable returns (bool){\r\n        require(msg.value >=0);\r\n        require(msg.sender == allCDSs[_ID].maker);\r\n        allCDSs[_ID].makerCollateral.add(msg.value);\r\n    }\r\n\r\n    function addMakerCollateralTo(uint _ID, address _to) public payable returns(bool){\r\n        require(msg.value >=0);\r\n        require(_to == allCDSs[_ID].maker);\r\n        allCDSs[_ID].makerCollateral.add(msg.value);\r\n    }\r\n    \r\n    function addTakerCollateral(uint _ID)public payable returns (bool){\r\n        require(msg.value >=0);\r\n        require(msg.sender == allCDSs[_ID].taker);\r\n        allCDSs[_ID].takerCollateral.add(msg.value);\r\n    }\r\n\r\n    function addTakerCollateralTo(uint _ID, address _to) public payable returns(bool){\r\n        require(msg.value >=0);\r\n        require(_to == allCDSs[_ID].taker);\r\n        allCDSs[_ID].takerCollateral.add(msg.value);\r\n    }\r\n\r\n    function _calculateOwed(uint _ID)internal view returns(uint){\r\n        uint start = allCDSs[_ID].filledTime;\r\n        uint current = block.timestamp;\r\n        uint delta = current.sub(start);\r\n        uint owedPeriod = uint(delta).div(uint(allCDSs[_ID].payPeriod).mul(86400));\r\n        uint outstanding = (owedPeriod.mul(allCDSs[_ID].premium)).sub(allCDSs[_ID].payed);\r\n        return outstanding;\r\n    }\r\n\r\n    function close(uint _ID)public {        \r\n        if(allCDSs[_ID].expiration > now || allCDSs[_ID].payed < allCDSs[_ID].owed){        \r\n            require(msg.sender == allCDSs[_ID].maker);\r\n\r\n        }\r\n        else{\r\n            msg.sender.transfer(allCDSs[_ID].expirationBounty);\r\n            allCDSs[_ID].matched = false;\r\n            allCDSs[_ID].matchable = false;\r\n            allCDSs[_ID].closed = true;\r\n        }\r\n    }\r\n    function requestPremium(uint _ID)public returns(bool){\r\n        uint owed = _calculateOwed(_ID);\r\n        require(owed > 0);\r\n        if(owed > allCDSs[_ID].takerCollateral){            \r\n            uint collateral = allCDSs[_ID].takerCollateral;\r\n            allCDSs[_ID].takerCollateral = 0;\r\n            allCDSs[_ID].closed = true;\r\n            allCDSs[_ID].matched = false;\r\n            allCDSs[_ID].matchable =  false;\r\n            if(collateral > 0){\r\n                allCDSs[_ID].maker.transfer(collateral);\r\n            }\r\n            return(true);            \r\n        }\r\n        else{\r\n            allCDSs[_ID].maker.transfer(owed);\r\n            allCDSs[_ID].payed.add(owed);\r\n        }\r\n    }\r\n}\r\n",
  "sourcePath": "C:\\Users\\nicholas\\Desktop\\ethsf2\\contracts\\cdpcds.sol",
  "compiler": {
    "name": "solc",
    "version": "0.4.24+commit.e67f0147.Emscripten.clang"
  },
  "schemaVersion": "2.0.1",
  "updatedAt": "2018-10-07T08:05:56.034Z"
}