{
  "contractName": "cdpcds",
  "abi": [
    {
      "constant": false,
      "inputs": [
        {
          "name": "_premium",
          "type": "uint256"
        }
      ],
      "name": "makeCDSOrder",
      "outputs": [],
      "payable": true,
      "stateMutability": "payable",
      "type": "function"
    },
    {
      "constant": true,
      "inputs": [
        {
          "name": "_ID",
          "type": "uint256"
        }
      ],
      "name": "getCDS",
      "outputs": [
        {
          "name": "",
          "type": "address"
        },
        {
          "name": "",
          "type": "address"
        },
        {
          "name": "",
          "type": "uint256"
        },
        {
          "name": "",
          "type": "uint256"
        }
      ],
      "payable": false,
      "stateMutability": "view",
      "type": "function"
    },
    {
      "constant": false,
      "inputs": [
        {
          "name": "_ID",
          "type": "uint256"
        }
      ],
      "name": "fillCDSOrder",
      "outputs": [
        {
          "name": "",
          "type": "bool"
        }
      ],
      "payable": true,
      "stateMutability": "payable",
      "type": "function"
    },
    {
      "constant": false,
      "inputs": [
        {
          "name": "_ID",
          "type": "uint256"
        }
      ],
      "name": "cancelCDSOrder",
      "outputs": [
        {
          "name": "",
          "type": "bool"
        }
      ],
      "payable": false,
      "stateMutability": "nonpayable",
      "type": "function"
    },
    {
      "constant": false,
      "inputs": [
        {
          "name": "_ID",
          "type": "uint256"
        }
      ],
      "name": "close",
      "outputs": [],
      "payable": false,
      "stateMutability": "nonpayable",
      "type": "function"
    },
    {
      "constant": false,
      "inputs": [
        {
          "name": "_ID",
          "type": "uint256"
        }
      ],
      "name": "requestPremium",
      "outputs": [
        {
          "name": "",
          "type": "bool"
        }
      ],
      "payable": false,
      "stateMutability": "nonpayable",
      "type": "function"
    },
    {
      "constant": false,
      "inputs": [
        {
          "name": "_ID",
          "type": "uint256"
        }
      ],
      "name": "reportLiquidation",
      "outputs": [
        {
          "name": "",
          "type": "bool"
        }
      ],
      "payable": false,
      "stateMutability": "nonpayable",
      "type": "function"
    }
  ],
  "bytecode": "0x6080604052600060015534801561001557600080fd5b50610f04806100256000396000f300608060405260043610610083576000357c0100000000000000000000000000000000000000000000000000000000900463ffffffff1680630aebeb4e1461008857806350d24acd146100b55780635ae09790146100d55780635af8d21c1461011a57806386a7d2f1146101c8578063ccf75bcd1461020d578063d3052cb714610245575b600080fd5b34801561009457600080fd5b506100b36004803603810190808035906020019092919050505061028a565b005b6100d360048036038101908080359060200190929190505050610542565b005b3480156100e157600080fd5b5061010060048036038101908080359060200190929190505050610736565b604051808215151515815260200191505060405180910390f35b34801561012657600080fd5b5061014560048036038101908080359060200190929190505050610880565b604051808573ffffffffffffffffffffffffffffffffffffffff1673ffffffffffffffffffffffffffffffffffffffff1681526020018473ffffffffffffffffffffffffffffffffffffffff1673ffffffffffffffffffffffffffffffffffffffff16815260200183815260200182815260200194505050505060405180910390f35b3480156101d457600080fd5b506101f36004803603810190808035906020019092919050505061092d565b604051808215151515815260200191505060405180910390f35b61022b60048036038101908080359060200190929190505050610a73565b604051808215151515815260200191505060405180910390f35b34801561025157600080fd5b5061027060048036038101908080359060200190929190505050610b78565b604051808215151515815260200191505060405180910390f35b60008060008060008086815260200190815260200160002060000160009054906101000a900473ffffffffffffffffffffffffffffffffffffffff1673ffffffffffffffffffffffffffffffffffffffff163373ffffffffffffffffffffffffffffffffffffffff161415156102ff57600080fd5b61030885610b78565b93508315801561032c5750600080868152602001908152602001600020600b015442105b156103c25761036d606461035f600d6000808a815260200190815260200160002060020154610d4c90919063ffffffff16565b610d8490919063ffffffff16565b92506103978360008088815260200190815260200160002060020154610d9a90919063ffffffff16565b506103c08360008088815260200190815260200160002060030154610db390919063ffffffff16565b505b60026000808781526020019081526020016000206005018190555060008086815260200190815260200160002060030154915060008060008781526020019081526020016000206003018190555060008086815260200190815260200160002060010160009054906101000a900473ffffffffffffffffffffffffffffffffffffffff1673ffffffffffffffffffffffffffffffffffffffff166108fc839081150290604051600060405180830381858888f1935050505015801561048b573d6000803e3d6000fd5b5060008086815260200190815260200160002060020154905060008060008781526020019081526020016000206002018190555060008086815260200190815260200160002060000160009054906101000a900473ffffffffffffffffffffffffffffffffffffffff1673ffffffffffffffffffffffffffffffffffffffff166108fc829081150290604051600060405180830381858888f1935050505015801561053a573d6000803e3d6000fd5b505050505050565b600066038d7ea4c68000341015151561055a57600080fd5b3490506101a0604051908101604052803373ffffffffffffffffffffffffffffffffffffffff168152602001600073ffffffffffffffffffffffffffffffffffffffff1681526020018281526020016000815260200183815260200160008152602001600154815260200160008152602001600081526020016000815260200162093a8081526020016105f96276a70042610db390919063ffffffff16565b8152602001610ad5815250600080600154815260200190815260200160002060008201518160000160006101000a81548173ffffffffffffffffffffffffffffffffffffffff021916908373ffffffffffffffffffffffffffffffffffffffff16021790555060208201518160010160006101000a81548173ffffffffffffffffffffffffffffffffffffffff021916908373ffffffffffffffffffffffffffffffffffffffff16021790555060408201518160020155606082015181600301556080820151816004015560a0820151816005015560c0820151816006015560e082015181600701556101008201518160080155610120820151816009015561014082015181600a015561016082015181600b015561018082015181600c015590505061073160018054610db390919063ffffffff16565b505050565b600080600080600085815260200190815260200160002060020154915061077b6000808681526020019081526020016000206003015483610db390919063ffffffff16565b6000808681526020019081526020016000206003018190555060008060008681526020019081526020016000206002018190555060008085815260200190815260200160002060030154905060008060008681526020019081526020016000206003018190555060008085815260200190815260200160002060010160009054906101000a900473ffffffffffffffffffffffffffffffffffffffff1673ffffffffffffffffffffffffffffffffffffffff166108fc829081150290604051600060405180830381858888f1935050505015801561085d573d6000803e3d6000fd5b506002600080868152602001908152602001600020600501819055505050919050565b60008060008060008086815260200190815260200160002060000160009054906101000a900473ffffffffffffffffffffffffffffffffffffffff1660008087815260200190815260200160002060010160009054906101000a900473ffffffffffffffffffffffffffffffffffffffff16600080888152602001908152602001600020600201546000808981526020019081526020016000206003015493509350935093509193509193565b6000803373ffffffffffffffffffffffffffffffffffffffff1660008085815260200190815260200160002060000160009054906101000a900473ffffffffffffffffffffffffffffffffffffffff1673ffffffffffffffffffffffffffffffffffffffff1614151561099f57600080fd5b60026000808581526020019081526020016000206005018190555060008084815260200190815260200160002060020154905060008060008581526020019081526020016000206002018190555060008084815260200190815260200160002060000160009054906101000a900473ffffffffffffffffffffffffffffffffffffffff1673ffffffffffffffffffffffffffffffffffffffff166108fc829081150290604051600060405180830381858888f19350505050158015610a68573d6000803e3d6000fd5b506001915050919050565b6000806000838152602001908152602001600020600401543410151515610a9957600080fd5b600080600084815260200190815260200160002060050154141515610abd57600080fd5b610ae53460008085815260200190815260200160002060030154610db390919063ffffffff16565b5042600080848152602001908152602001600020600901819055506001600080848152602001908152602001600020600501819055503360008084815260200190815260200160002060010160006101000a81548173ffffffffffffffffffffffffffffffffffffffff021916908373ffffffffffffffffffffffffffffffffffffffff16021790555060019050919050565b6000806000610b8684610dcf565b91506000808581526020019081526020016000206003015490506000821415610bb25760009250610d45565b80821115610c64576000806000868152602001908152602001600020600301819055506000811115610c5b5760008085815260200190815260200160002060000160009054906101000a900473ffffffffffffffffffffffffffffffffffffffff1673ffffffffffffffffffffffffffffffffffffffff166108fc829081150290604051600060405180830381858888f19350505050158015610c59573d6000803e3d6000fd5b505b60019250610d45565b8082111515610d4457610c958260008087815260200190815260200160002060030154610d9a90919063ffffffff16565b50610cbe8260008087815260200190815260200160002060070154610db390919063ffffffff16565b5060008085815260200190815260200160002060000160009054906101000a900473ffffffffffffffffffffffffffffffffffffffff1673ffffffffffffffffffffffffffffffffffffffff166108fc839081150290604051600060405180830381858888f19350505050158015610d3a573d6000803e3d6000fd5b5060009250610d45565b5b5050919050565b600080831415610d5f5760009050610d7e565b8183029050818382811515610d7057fe5b04141515610d7a57fe5b8090505b92915050565b60008183811515610d9157fe5b04905092915050565b6000828211151515610da857fe5b818303905092915050565b60008183019050828110151515610dc657fe5b80905092915050565b6000806000806000806000878152602001908152602001600020600b01544211610df95742610e10565b600080878152602001908152602001600020600b01545b9350610e3a6000808881526020019081526020016000206009015485610d9a90919063ffffffff16565b9250610e79610e6a620151806000808a8152602001908152602001600020600a0154610d4c90919063ffffffff16565b84610d8490919063ffffffff16565b9150610eca60008088815260200190815260200160002060070154610ebc6000808a81526020019081526020016000206004015485610d4c90919063ffffffff16565b610d9a90919063ffffffff16565b9050809450505050509190505600a165627a7a72305820b881ae957ffe9bdda7553c154a0ee1697e4ac5baa75b4b009338aeaa5d01a3f00029",
  "source": "pragma solidity ^0.4.24;\r\n\r\nimport \"../node_modules/zeppelin-solidity/contracts/math/SafeMath.sol\";\r\n\r\ncontract cdpcds {\r\n    //THIS IS AN ADDITION\r\n    using SafeMath for uint256;\r\n\r\n    struct CDS {\r\n        address maker;\r\n        address taker;\r\n        uint makerCollateral;\r\n        uint takerCollateral;\r\n        uint premium;\r\n        //0=unmatched, 1=matched+open, 2=closed\r\n        uint status;\r\n        uint orderID;\r\n        uint payed;\r\n        uint owed;\r\n        uint filledTime;\r\n        uint payPeriod;\r\n        uint expiration;\r\n        uint cdpID;\r\n        //uint expirationBounty;\r\n    }\r\n\r\n    mapping(uint => CDS)allCDSs;\r\n\r\n    uint currentID = 0; \r\n   \r\n    function makeCDSOrder(uint _premium)public payable {\r\n        require(msg.value >= 1000000000000000);\r\n        uint collateral = msg.value;\r\n        allCDSs[currentID] = CDS(msg.sender, 0x0, collateral, 0, _premium, 0, currentID, 0, 0, 0, 7 days,now.add(90 days),2773);\r\n        currentID.add(1);\r\n    }\r\n    //HELPER SHOW INFO FUNCTION::\r\n\r\n    function getCDS(uint _ID)public view returns(address, address, uint, uint ){\r\n        return (allCDSs[_ID].maker,allCDSs[_ID].taker, allCDSs[_ID].makerCollateral, allCDSs[_ID].takerCollateral);\r\n    }\r\n    \r\n    //END HLPERS\r\n    function fillCDSOrder(uint _ID)public payable returns (bool){\r\n        require (msg.value >= allCDSs[_ID].premium);\r\n        require(allCDSs[_ID].status==0);\r\n        allCDSs[_ID].takerCollateral.add(msg.value);\r\n        allCDSs[_ID].filledTime = block.timestamp;\r\n        allCDSs[_ID].status = 1;\r\n        allCDSs[_ID].taker = msg.sender;\r\n        return true;\r\n    }\r\n\r\n    function cancelCDSOrder(uint _ID) public returns (bool){\r\n        require(allCDSs[_ID].maker == msg.sender);\r\n        allCDSs[_ID].status=2;\r\n        uint toTransfer = allCDSs[_ID].makerCollateral;\r\n        allCDSs[_ID].makerCollateral = 0;\r\n        allCDSs[_ID].maker.transfer(toTransfer);\r\n        return true;        \r\n    }\r\n    \r\n    function _calculateOwed(uint _ID)internal view returns(uint){\r\n        uint current = block.timestamp > allCDSs[_ID].expiration ? allCDSs[_ID].expiration : block.timestamp;\r\n        uint delta = current.sub(allCDSs[_ID].filledTime);\r\n        uint owedPayments = uint(delta).div(uint(allCDSs[_ID].payPeriod).mul(86400));\r\n        uint outstanding = (owedPayments.mul(allCDSs[_ID].premium)).sub(allCDSs[_ID].payed);\r\n        return outstanding;\r\n    }\r\n\r\n    function close(uint _ID)public {\r\n        require(msg.sender == allCDSs[_ID].maker);\r\n        bool underCollateral = requestPremium(_ID); //requestPremium requires no outstanding balance. stack is cleared and state is reversted. need another solution       \r\n        if(!underCollateral && (block.timestamp < allCDSs[_ID].expiration)){\r\n            uint earlyTermFee = (allCDSs[_ID].makerCollateral.mul(13)).div(100);\r\n            allCDSs[_ID].makerCollateral.sub(earlyTermFee);\r\n            allCDSs[_ID].takerCollateral.add(earlyTermFee);                              \r\n        }\r\n        //msg.sender.transfer(allCDSs[_ID].expirationBounty);\r\n        allCDSs[_ID].status=2;\r\n        uint takerPayout = allCDSs[_ID].takerCollateral;\r\n        allCDSs[_ID].takerCollateral = 0;\r\n        allCDSs[_ID].taker.transfer(takerPayout);\r\n        uint makerPayout = allCDSs[_ID].makerCollateral;\r\n        allCDSs[_ID].makerCollateral = 0;\r\n        allCDSs[_ID].maker.transfer(makerPayout);\r\n    }\r\n\r\n    function requestPremium(uint _ID)public returns(bool){\r\n        uint owed = _calculateOwed(_ID);\r\n        uint collateral = allCDSs[_ID].takerCollateral;\r\n\r\n        if(owed==0) return(false);\r\n        if(owed > collateral){            \r\n            allCDSs[_ID].takerCollateral = 0;\r\n            if(collateral>0) allCDSs[_ID].maker.transfer(collateral);\r\n            return(true);\t\t\t             \r\n        }\r\n        if(owed <= collateral){//Fix Later\r\n            allCDSs[_ID].takerCollateral.sub(owed);\r\n            allCDSs[_ID].payed.add(owed);\r\n            allCDSs[_ID].maker.transfer(owed);            \r\n            return(false);\r\n        }\r\n    }\r\n\r\n    function reportLiquidation(uint _ID)public returns(bool){\r\n        uint collateral = allCDSs[_ID].makerCollateral;\r\n        allCDSs[_ID].takerCollateral = collateral.add(allCDSs[_ID].takerCollateral);\r\n        allCDSs[_ID].makerCollateral = 0;\r\n        uint takerPayout = allCDSs[_ID].takerCollateral;\r\n        allCDSs[_ID].takerCollateral = 0;\r\n        allCDSs[_ID].taker.transfer(takerPayout);\r\n        allCDSs[_ID].status=2;\r\n    }\r\n    \r\n\r\n    /* function addMakerCollateral(uint _ID)public payable returns (bool){\r\n        require(msg.value >=0);\r\n        require(msg.sender == allCDSs[_ID].maker);\r\n        allCDSs[_ID].makerCollateral.add(msg.value);\r\n    }\r\n\r\n    function addMakerCollateralTo(uint _ID, address _to) public payable returns(bool){\r\n        require(msg.value >=0);\r\n        require(_to == allCDSs[_ID].maker);\r\n        allCDSs[_ID].makerCollateral.add(msg.value);\r\n    }\r\n    \r\n    function addTakerCollateral(uint _ID)public payable returns (bool){\r\n        require(msg.value >=0);\r\n        require(msg.sender == allCDSs[_ID].taker);\r\n        allCDSs[_ID].takerCollateral.add(msg.value);\r\n    }\r\n\r\n    function addTakerCollateralTo(uint _ID, address _to) public payable returns(bool){\r\n        require(msg.value >=0);\r\n        require(_to == allCDSs[_ID].taker);\r\n        allCDSs[_ID].takerCollateral.add(msg.value);\r\n    } */\r\n}",
  "sourcePath": "C:\\Users\\nicholas\\Desktop\\ethsf2\\contracts\\cdpcds.sol",
  "compiler": {
    "name": "solc",
    "version": "0.4.24+commit.e67f0147.Emscripten.clang"
  },
  "schemaVersion": "2.0.1",
  "updatedAt": "2018-10-09T20:10:41.946Z"
}