{
  "contractName": "cdpcds",
  "abi": [
    {
      "constant": false,
      "inputs": [
        {
          "name": "_premium",
          "type": "uint256"
        }
      ],
      "name": "makeCDSOrder",
      "outputs": [],
      "payable": true,
      "stateMutability": "payable",
      "type": "function"
    },
    {
      "constant": true,
      "inputs": [
        {
          "name": "_ID",
          "type": "uint256"
        }
      ],
      "name": "getCDS",
      "outputs": [
        {
          "name": "",
          "type": "address"
        },
        {
          "name": "",
          "type": "uint256"
        },
        {
          "name": "",
          "type": "uint256"
        }
      ],
      "payable": false,
      "stateMutability": "view",
      "type": "function"
    },
    {
      "constant": true,
      "inputs": [
        {
          "name": "_addr",
          "type": "address"
        }
      ],
      "name": "viewHoldings",
      "outputs": [
        {
          "name": "",
          "type": "uint256[]"
        }
      ],
      "payable": false,
      "stateMutability": "view",
      "type": "function"
    },
    {
      "constant": false,
      "inputs": [
        {
          "name": "_ID",
          "type": "uint256"
        }
      ],
      "name": "fillCDSOrder",
      "outputs": [
        {
          "name": "",
          "type": "bool"
        }
      ],
      "payable": true,
      "stateMutability": "payable",
      "type": "function"
    },
    {
      "constant": false,
      "inputs": [
        {
          "name": "_ID",
          "type": "uint256"
        }
      ],
      "name": "cancelCDSOrder",
      "outputs": [
        {
          "name": "",
          "type": "bool"
        }
      ],
      "payable": false,
      "stateMutability": "nonpayable",
      "type": "function"
    },
    {
      "constant": false,
      "inputs": [
        {
          "name": "_ID",
          "type": "uint256"
        }
      ],
      "name": "addMakerCollateral",
      "outputs": [
        {
          "name": "",
          "type": "bool"
        }
      ],
      "payable": true,
      "stateMutability": "payable",
      "type": "function"
    },
    {
      "constant": false,
      "inputs": [
        {
          "name": "_ID",
          "type": "uint256"
        },
        {
          "name": "_to",
          "type": "address"
        }
      ],
      "name": "addMakerCollateralTo",
      "outputs": [
        {
          "name": "",
          "type": "bool"
        }
      ],
      "payable": true,
      "stateMutability": "payable",
      "type": "function"
    },
    {
      "constant": false,
      "inputs": [
        {
          "name": "_ID",
          "type": "uint256"
        }
      ],
      "name": "addTakerCollateral",
      "outputs": [
        {
          "name": "",
          "type": "bool"
        }
      ],
      "payable": true,
      "stateMutability": "payable",
      "type": "function"
    },
    {
      "constant": false,
      "inputs": [
        {
          "name": "_ID",
          "type": "uint256"
        },
        {
          "name": "_to",
          "type": "address"
        }
      ],
      "name": "addTakerCollateralTo",
      "outputs": [
        {
          "name": "",
          "type": "bool"
        }
      ],
      "payable": true,
      "stateMutability": "payable",
      "type": "function"
    },
    {
      "constant": false,
      "inputs": [
        {
          "name": "_ID",
          "type": "uint256"
        }
      ],
      "name": "close",
      "outputs": [],
      "payable": false,
      "stateMutability": "nonpayable",
      "type": "function"
    },
    {
      "constant": false,
      "inputs": [
        {
          "name": "_ID",
          "type": "uint256"
        }
      ],
      "name": "requestPremium",
      "outputs": [
        {
          "name": "",
          "type": "bool"
        }
      ],
      "payable": false,
      "stateMutability": "nonpayable",
      "type": "function"
    },
    {
      "constant": false,
      "inputs": [
        {
          "name": "_ID",
          "type": "uint256"
        }
      ],
      "name": "reportLiquidation",
      "outputs": [
        {
          "name": "",
          "type": "bool"
        }
      ],
      "payable": false,
      "stateMutability": "nonpayable",
      "type": "function"
    }
  ],
  "bytecode": "0x6080604052600060025534801561001557600080fd5b50611619806100256000396000f3006080604052600436106100ba576000357c0100000000000000000000000000000000000000000000000000000000900463ffffffff1680630aebeb4e146100bf5780633ebef088146100ec578063453312e31461014457806350d24acd1461019c5780635ae09790146101bc5780635af8d21c146102015780638134684f1461027c57806386a7d2f1146102b4578063ccf75bcd146102f9578063d3052cb714610331578063e029c72c14610376578063f65fad28146103ae575b600080fd5b3480156100cb57600080fd5b506100ea60048036038101908080359060200190929190505050610446565b005b61012a60048036038101908080359060200190929190803573ffffffffffffffffffffffffffffffffffffffff16906020019092919050505061076d565b604051808215151515815260200191505060405180910390f35b61018260048036038101908080359060200190929190803573ffffffffffffffffffffffffffffffffffffffff16906020019092919050505061081c565b604051808215151515815260200191505060405180910390f35b6101ba600480360381019080803590602001909291905050506108cb565b005b3480156101c857600080fd5b506101e760048036038101908080359060200190929190505050610b65565b604051808215151515815260200191505060405180910390f35b34801561020d57600080fd5b5061022c60048036038101908080359060200190929190505050610d16565b604051808473ffffffffffffffffffffffffffffffffffffffff1673ffffffffffffffffffffffffffffffffffffffff168152602001838152602001828152602001935050505060405180910390f35b61029a60048036038101908080359060200190929190505050610d8a565b604051808215151515815260200191505060405180910390f35b3480156102c057600080fd5b506102df60048036038101908080359060200190929190505050610e38565b604051808215151515815260200191505060405180910390f35b61031760048036038101908080359060200190929190505050610f91565b604051808215151515815260200191505060405180910390f35b34801561033d57600080fd5b5061035c60048036038101908080359060200190929190505050611151565b604051808215151515815260200191505060405180910390f35b61039460048036038101908080359060200190929190505050611317565b604051808215151515815260200191505060405180910390f35b3480156103ba57600080fd5b506103ef600480360381019080803573ffffffffffffffffffffffffffffffffffffffff1690602001909291905050506113c5565b6040518080602001828103825283818151815260200191508051906020019060200280838360005b83811015610432578082015181840152602081019050610417565b505050509050019250505060405180910390f35b60008060008060008086815260200190815260200160002060000160009054906101000a900473ffffffffffffffffffffffffffffffffffffffff1673ffffffffffffffffffffffffffffffffffffffff163373ffffffffffffffffffffffffffffffffffffffff161415156104bb57600080fd5b6104c485611151565b9350831580156104e85750600080868152602001908152602001600020600c015442105b1561057e57610529606461051b600d6000808a81526020019081526020016000206002015461145c90919063ffffffff16565b61149490919063ffffffff16565b925061055383600080888152602001908152602001600020600201546114aa90919063ffffffff16565b5061057c83600080888152602001908152602001600020600301546114c390919063ffffffff16565b505b600080600087815260200190815260200160002060050160006101000a81548160ff021916908315150217905550600080600087815260200190815260200160002060050160026101000a81548160ff021916908315150217905550600160008087815260200190815260200160002060050160016101000a81548160ff02191690831515021790555060008086815260200190815260200160002060030154915060008060008781526020019081526020016000206003018190555060008086815260200190815260200160002060010160009054906101000a900473ffffffffffffffffffffffffffffffffffffffff1673ffffffffffffffffffffffffffffffffffffffff166108fc839081150290604051600060405180830381858888f193505050501580156106b6573d6000803e3d6000fd5b5060008086815260200190815260200160002060020154905060008060008781526020019081526020016000206002018190555060008086815260200190815260200160002060000160009054906101000a900473ffffffffffffffffffffffffffffffffffffffff1673ffffffffffffffffffffffffffffffffffffffff166108fc829081150290604051600060405180830381858888f19350505050158015610765573d6000803e3d6000fd5b505050505050565b600080341015151561077e57600080fd5b60008084815260200190815260200160002060000160009054906101000a900473ffffffffffffffffffffffffffffffffffffffff1673ffffffffffffffffffffffffffffffffffffffff168273ffffffffffffffffffffffffffffffffffffffff161415156107ed57600080fd5b61081534600080868152602001908152602001600020600201546114c390919063ffffffff16565b5092915050565b600080341015151561082d57600080fd5b60008084815260200190815260200160002060010160009054906101000a900473ffffffffffffffffffffffffffffffffffffffff1673ffffffffffffffffffffffffffffffffffffffff168273ffffffffffffffffffffffffffffffffffffffff1614151561089c57600080fd5b6108c434600080868152602001908152602001600020600301546114c390919063ffffffff16565b5092915050565b60008066038d7ea4c6800034101515156108e457600080fd5b6108f9614e203461149490919063ffffffff16565b915034905061091182826114aa90919063ffffffff16565b9050610200604051908101604052803373ffffffffffffffffffffffffffffffffffffffff168152602001600073ffffffffffffffffffffffffffffffffffffffff16815260200182815260200160008152602001848152602001600115158152602001600015158152602001600115158152602001600254815260200183815260200160008152602001600081526020016000815260200162093a8081526020016109c96276a700426114c390919063ffffffff16565b8152602001610ad5815250600080600254815260200190815260200160002060008201518160000160006101000a81548173ffffffffffffffffffffffffffffffffffffffff021916908373ffffffffffffffffffffffffffffffffffffffff16021790555060208201518160010160006101000a81548173ffffffffffffffffffffffffffffffffffffffff021916908373ffffffffffffffffffffffffffffffffffffffff16021790555060408201518160020155606082015181600301556080820151816004015560a08201518160050160006101000a81548160ff02191690831515021790555060c08201518160050160016101000a81548160ff02191690831515021790555060e08201518160050160026101000a81548160ff021916908315150217905550610100820151816006015561012082015181600701556101408201518160080155610160820151816009015561018082015181600a01556101a082015181600b01556101c082015181600c01556101e082015181600d01559050506001600260008282540192505081905550505050565b600080600080600192508215610d0b57600080868152602001908152602001600020600201549150610bb582600080888152602001908152602001600020600301546114c390919063ffffffff16565b5060008060008781526020019081526020016000206002018190555060008086815260200190815260200160002060030154905060008060008781526020019081526020016000206003018190555060008086815260200190815260200160002060010160009054906101000a900473ffffffffffffffffffffffffffffffffffffffff1673ffffffffffffffffffffffffffffffffffffffff166108fc829081150290604051600060405180830381858888f19350505050158015610c7f573d6000803e3d6000fd5b50600080600087815260200190815260200160002060050160006101000a81548160ff021916908315150217905550600080600087815260200190815260200160002060050160026101000a81548160ff021916908315150217905550600160008087815260200190815260200160002060050160016101000a81548160ff0219169083151502179055505b829350505050919050565b600080600080600085815260200190815260200160002060000160009054906101000a900473ffffffffffffffffffffffffffffffffffffffff1660008086815260200190815260200160002060020154600080878152602001908152602001600020600301549250925092509193909250565b6000803410151515610d9b57600080fd5b60008083815260200190815260200160002060010160009054906101000a900473ffffffffffffffffffffffffffffffffffffffff1673ffffffffffffffffffffffffffffffffffffffff163373ffffffffffffffffffffffffffffffffffffffff16141515610e0a57600080fd5b610e3234600080858152602001908152602001600020600301546114c390919063ffffffff16565b50919050565b6000803373ffffffffffffffffffffffffffffffffffffffff1660008085815260200190815260200160002060000160009054906101000a900473ffffffffffffffffffffffffffffffffffffffff1673ffffffffffffffffffffffffffffffffffffffff16141515610eaa57600080fd5b600080600085815260200190815260200160002060050160026101000a81548160ff02191690831515021790555060008084815260200190815260200160002060020154905060008060008581526020019081526020016000206002018190555060008084815260200190815260200160002060000160009054906101000a900473ffffffffffffffffffffffffffffffffffffffff1673ffffffffffffffffffffffffffffffffffffffff166108fc829081150290604051600060405180830381858888f19350505050158015610f86573d6000803e3d6000fd5b506001915050919050565b6000806000838152602001908152602001600020600401543410151515610fb757600080fd5b6001151560008084815260200190815260200160002060050160029054906101000a900460ff161515141515610fec57600080fd5b61101434600080858152602001908152602001600020600301546114c390919063ffffffff16565b5042600080848152602001908152602001600020600a0181905550600160008084815260200190815260200160002060050160006101000a81548160ff021916908315150217905550600080600084815260200190815260200160002060050160026101000a81548160ff0219169083151502179055503360008084815260200190815260200160002060010160006101000a81548173ffffffffffffffffffffffffffffffffffffffff021916908373ffffffffffffffffffffffffffffffffffffffff160217905550600160003373ffffffffffffffffffffffffffffffffffffffff1673ffffffffffffffffffffffffffffffffffffffff16815260200190815260200160002082908060018154018082558091505090600182039060005260206000200160009091929091909150555060019050919050565b600080600061115f846114df565b9150600080858152602001908152602001600020600301549050600082141561118b5760009250611310565b8082111561123d5760008060008681526020019081526020016000206003018190555060008111156112345760008085815260200190815260200160002060000160009054906101000a900473ffffffffffffffffffffffffffffffffffffffff1673ffffffffffffffffffffffffffffffffffffffff166108fc829081150290604051600060405180830381858888f19350505050158015611232573d6000803e3d6000fd5b505b60019250611310565b60008085815260200190815260200160002060000160009054906101000a900473ffffffffffffffffffffffffffffffffffffffff1673ffffffffffffffffffffffffffffffffffffffff166108fc839081150290604051600060405180830381858888f193505050501580156112b8573d6000803e3d6000fd5b506112e182600080878152602001908152602001600020600801546114c390919063ffffffff16565b5061130a82600080878152602001908152602001600020600301546114aa90919063ffffffff16565b50600092505b5050919050565b600080341015151561132857600080fd5b60008083815260200190815260200160002060000160009054906101000a900473ffffffffffffffffffffffffffffffffffffffff1673ffffffffffffffffffffffffffffffffffffffff163373ffffffffffffffffffffffffffffffffffffffff1614151561139757600080fd5b6113bf34600080858152602001908152602001600020600201546114c390919063ffffffff16565b50919050565b6060600160008373ffffffffffffffffffffffffffffffffffffffff1673ffffffffffffffffffffffffffffffffffffffff16815260200190815260200160002080548060200260200160405190810160405280929190818152602001828054801561145057602002820191906000526020600020905b81548152602001906001019080831161143c575b50505050509050919050565b60008083141561146f576000905061148e565b818302905081838281151561148057fe5b0414151561148a57fe5b8090505b92915050565b600081838115156114a157fe5b04905092915050565b60008282111515156114b857fe5b818303905092915050565b600081830190508281101515156114d657fe5b80905092915050565b600080600080600080600080888152602001908152602001600020600a01549450600080888152602001908152602001600020600c015442116115225742611539565b600080888152602001908152602001600020600c01545b935061154e85856114aa90919063ffffffff16565b925061158d61157e620151806000808b8152602001908152602001600020600b015461145c90919063ffffffff16565b8461149490919063ffffffff16565b91506115de600080898152602001908152602001600020600801546115d06000808b8152602001908152602001600020600401548561145c90919063ffffffff16565b6114aa90919063ffffffff16565b905080955050505050509190505600a165627a7a72305820b735be6abe90024457439b71a0465b4e8e39fc338fc3ee7255378b5e4feef4640029",
  "source": "pragma solidity ^0.4.24;\r\n\r\nimport \"../node_modules/zeppelin-solidity/contracts/math/SafeMath.sol\";\r\n\r\ncontract cdpcds {\r\n    //THIS IS AN ADDITION\r\n    using SafeMath for uint256;\r\n\r\n    struct CDS {\r\n        address maker;\r\n        address taker;\r\n        uint makerCollateral;\r\n        uint takerCollateral;\r\n        uint premium;\r\n        bool matched;\r\n        bool closed;\r\n        bool matchable;\r\n        uint orderID;\r\n        uint expirationBounty;\r\n        uint payed;\r\n        uint owed;\r\n        uint filledTime;\r\n        uint payPeriod;\r\n        uint expiration;\r\n        uint cdpID;\r\n    }\r\n\r\n    mapping(uint => CDS)allCDSs;\r\n    mapping(address => uint[])holdings;\r\n\r\n    uint currentID = 0; \r\n   \r\n    function makeCDSOrder(uint _premium) public payable {\r\n        require(msg.value >= 1000000000000000);\r\n        uint expirationBounty = msg.value.div(20000);\r\n        uint collateral = msg.value;\r\n        collateral = collateral.sub(expirationBounty);\r\n        allCDSs[currentID] = CDS(msg.sender, 0x0, collateral, 0, _premium, true, false,true, currentID, expirationBounty, 0, 0, 0, 7 days,now.add(90 days),2773);\r\n        currentID += 1;\r\n    }\r\n    //HELPER SHOW INFO FUNCTION::\r\n\r\n    function getCDS(uint _ID)public view returns(address, uint, uint ){\r\n        return (allCDSs[_ID].maker, allCDSs[_ID].makerCollateral, allCDSs[_ID].takerCollateral);\r\n    }\r\n\r\n    function viewHoldings(address _addr)public view returns(uint[]){\r\n        return holdings[_addr];        \r\n    }\r\n\r\n    \r\n    //END HLPERS\r\n    function fillCDSOrder(uint _ID)public payable returns (bool){\r\n        require (msg.value >= allCDSs[_ID].premium);\r\n        require(allCDSs[_ID].matchable==true);\r\n        allCDSs[_ID].takerCollateral.add(msg.value);\r\n        allCDSs[_ID].filledTime = block.timestamp;\r\n        allCDSs[_ID].matched = true;\r\n        allCDSs[_ID].matchable = false;\r\n        allCDSs[_ID].taker = msg.sender;\r\n        holdings[msg.sender].push(_ID);\r\n        return true;\r\n    }\r\n\r\n    function cancelCDSOrder(uint _ID) public returns (bool){\r\n        require(allCDSs[_ID].maker == msg.sender);\r\n        allCDSs[_ID].matchable =false ;\r\n        uint toTransfer = allCDSs[_ID].makerCollateral;\r\n        allCDSs[_ID].makerCollateral = 0;\r\n        allCDSs[_ID].maker.transfer(toTransfer);\r\n        return true;        \r\n    }\r\n    \r\n    function addMakerCollateral(uint _ID)public payable returns (bool){\r\n        require(msg.value >=0);\r\n        require(msg.sender == allCDSs[_ID].maker);\r\n        allCDSs[_ID].makerCollateral.add(msg.value);\r\n    }\r\n\r\n    function addMakerCollateralTo(uint _ID, address _to) public payable returns(bool){\r\n        require(msg.value >=0);\r\n        require(_to == allCDSs[_ID].maker);\r\n        allCDSs[_ID].makerCollateral.add(msg.value);\r\n    }\r\n    \r\n    function addTakerCollateral(uint _ID)public payable returns (bool){\r\n        require(msg.value >=0);\r\n        require(msg.sender == allCDSs[_ID].taker);\r\n        allCDSs[_ID].takerCollateral.add(msg.value);\r\n    }\r\n\r\n    function addTakerCollateralTo(uint _ID, address _to) public payable returns(bool){\r\n        require(msg.value >=0);\r\n        require(_to == allCDSs[_ID].taker);\r\n        allCDSs[_ID].takerCollateral.add(msg.value);\r\n    }\r\n\r\n    function _calculateOwed(uint _ID)internal view returns(uint){\r\n        uint start = allCDSs[_ID].filledTime;\r\n        uint current = block.timestamp > allCDSs[_ID].expiration ? allCDSs[_ID].expiration : block.timestamp;\r\n        uint delta = current.sub(start);\r\n        uint owedPeriod = uint(delta).div(uint(allCDSs[_ID].payPeriod).mul(86400));\r\n        uint outstanding = (owedPeriod.mul(allCDSs[_ID].premium)).sub(allCDSs[_ID].payed);\r\n        return outstanding;\r\n    }\r\n\r\n    function close(uint _ID)public {\r\n        require(msg.sender == allCDSs[_ID].maker);\r\n        bool underCollateral = requestPremium(_ID);//requestPremium requires no outstanding balance. stack is cleared and state is reversted. need another solution       \r\n        if(!underCollateral && block.timestamp < allCDSs[_ID].expiration){\r\n            uint earlyTermFee = (allCDSs[_ID].makerCollateral.mul(13)).div(100);\r\n            allCDSs[_ID].makerCollateral.sub(earlyTermFee);\r\n            allCDSs[_ID].takerCollateral.add(earlyTermFee);                              \r\n        }\r\n        //msg.sender.transfer(allCDSs[_ID].expirationBounty);\r\n        allCDSs[_ID].matched = false;\r\n        allCDSs[_ID].matchable = false;\r\n        allCDSs[_ID].closed = true;\r\n        uint takerPayout = allCDSs[_ID].takerCollateral;\r\n        allCDSs[_ID].takerCollateral = 0;\r\n        allCDSs[_ID].taker.transfer(takerPayout);\r\n        uint makerPayout = allCDSs[_ID].makerCollateral;\r\n        allCDSs[_ID].makerCollateral = 0;\r\n        allCDSs[_ID].maker.transfer(makerPayout);\r\n    }\r\n\r\n    function requestPremium(uint _ID)public returns(bool){\r\n        uint owed = _calculateOwed(_ID);\r\n        uint collateral = allCDSs[_ID].takerCollateral;\r\n\r\n        if(owed==0) return(false);\r\n        if(owed > collateral){            \r\n            allCDSs[_ID].takerCollateral = 0;\r\n            if(collateral>0) \r\n            allCDSs[_ID].maker.transfer(collateral);\r\n            return(true);\t\t\t             \r\n        }else {//Fix Later\r\n            allCDSs[_ID].maker.transfer(owed);\r\n            allCDSs[_ID].payed.add(owed);\r\n            allCDSs[_ID].takerCollateral.sub(owed);\r\n            return(false);\r\n        }\r\n    }\r\n\r\n    function reportLiquidation(uint _ID)public returns(bool){\r\n        bool verifiedLiquidation = true;\r\n        //insert some code to set verified liquidation to be the outcome of the oracle\r\n        if(verifiedLiquidation){\r\n            uint makerCollateral = allCDSs[_ID].makerCollateral;\r\n            allCDSs[_ID].takerCollateral.add(makerCollateral);\r\n            allCDSs[_ID].makerCollateral = 0;\r\n            uint takerPayout = allCDSs[_ID].takerCollateral;\r\n            allCDSs[_ID].takerCollateral = 0;\r\n            allCDSs[_ID].taker.transfer(takerPayout);\r\n            allCDSs[_ID].matched = false;\r\n            allCDSs[_ID].matchable = false;\r\n            allCDSs[_ID].closed = true;\r\n        }\r\n        return verifiedLiquidation;\r\n    }\r\n}",
  "sourcePath": "C:\\Users\\nicholas\\Desktop\\ethsf2\\contracts\\cdpcds.sol",
  "compiler": {
    "name": "solc",
    "version": "0.4.24+commit.e67f0147.Emscripten.clang"
  },
  "schemaVersion": "2.0.1",
  "updatedAt": "2018-10-07T17:03:37.848Z"
}