{
  "contractName": "cdpcds",
  "abi": [
    {
      "constant": false,
      "inputs": [
        {
          "name": "_takerCollateral",
          "type": "uint256"
        },
        {
          "name": "_premium",
          "type": "uint256"
        }
      ],
      "name": "makeCDSOrder",
      "outputs": [],
      "payable": true,
      "stateMutability": "payable",
      "type": "function"
    },
    {
      "constant": true,
      "inputs": [
        {
          "name": "_ID",
          "type": "uint256"
        }
      ],
      "name": "getCDS",
      "outputs": [
        {
          "name": "",
          "type": "address"
        },
        {
          "name": "",
          "type": "uint256"
        },
        {
          "name": "",
          "type": "uint256"
        }
      ],
      "payable": false,
      "stateMutability": "view",
      "type": "function"
    },
    {
      "constant": true,
      "inputs": [
        {
          "name": "_addr",
          "type": "address"
        }
      ],
      "name": "viewHoldings",
      "outputs": [
        {
          "name": "",
          "type": "uint256[]"
        }
      ],
      "payable": false,
      "stateMutability": "view",
      "type": "function"
    },
    {
      "constant": false,
      "inputs": [
        {
          "name": "_ID",
          "type": "uint256"
        }
      ],
      "name": "fillCDSOrder",
      "outputs": [
        {
          "name": "",
          "type": "bool"
        }
      ],
      "payable": true,
      "stateMutability": "payable",
      "type": "function"
    },
    {
      "constant": false,
      "inputs": [
        {
          "name": "_ID",
          "type": "uint256"
        }
      ],
      "name": "cancelCDSOrder",
      "outputs": [
        {
          "name": "",
          "type": "bool"
        }
      ],
      "payable": false,
      "stateMutability": "nonpayable",
      "type": "function"
    },
    {
      "constant": false,
      "inputs": [
        {
          "name": "_ID",
          "type": "uint256"
        }
      ],
      "name": "addMakerCollateral",
      "outputs": [
        {
          "name": "",
          "type": "bool"
        }
      ],
      "payable": true,
      "stateMutability": "payable",
      "type": "function"
    },
    {
      "constant": false,
      "inputs": [
        {
          "name": "_ID",
          "type": "uint256"
        },
        {
          "name": "_to",
          "type": "address"
        }
      ],
      "name": "addMakerCollateralTo",
      "outputs": [
        {
          "name": "",
          "type": "bool"
        }
      ],
      "payable": true,
      "stateMutability": "payable",
      "type": "function"
    },
    {
      "constant": false,
      "inputs": [
        {
          "name": "_ID",
          "type": "uint256"
        }
      ],
      "name": "addTakerCollateral",
      "outputs": [
        {
          "name": "",
          "type": "bool"
        }
      ],
      "payable": true,
      "stateMutability": "payable",
      "type": "function"
    },
    {
      "constant": false,
      "inputs": [
        {
          "name": "_ID",
          "type": "uint256"
        },
        {
          "name": "_to",
          "type": "address"
        }
      ],
      "name": "addTakerCollateralTo",
      "outputs": [
        {
          "name": "",
          "type": "bool"
        }
      ],
      "payable": true,
      "stateMutability": "payable",
      "type": "function"
    },
    {
      "constant": false,
      "inputs": [
        {
          "name": "_ID",
          "type": "uint256"
        }
      ],
      "name": "close",
      "outputs": [],
      "payable": false,
      "stateMutability": "nonpayable",
      "type": "function"
    },
    {
      "constant": false,
      "inputs": [
        {
          "name": "_ID",
          "type": "uint256"
        }
      ],
      "name": "requestPremium",
      "outputs": [
        {
          "name": "",
          "type": "bool"
        }
      ],
      "payable": false,
      "stateMutability": "nonpayable",
      "type": "function"
    },
    {
      "constant": false,
      "inputs": [
        {
          "name": "_ID",
          "type": "uint256"
        }
      ],
      "name": "reportLiquidation",
      "outputs": [
        {
          "name": "",
          "type": "bool"
        }
      ],
      "payable": false,
      "stateMutability": "nonpayable",
      "type": "function"
    }
  ],
  "bytecode": "0x6080604052600060025534801561001557600080fd5b50611606806100256000396000f3006080604052600436106100ba576000357c0100000000000000000000000000000000000000000000000000000000900463ffffffff1680630aebeb4e146100bf578063310d0b37146100ec5780633ebef08814610116578063453312e31461016e5780635ae09790146101c65780635af8d21c1461020b5780638134684f1461028657806386a7d2f1146102be578063ccf75bcd14610303578063d3052cb71461033b578063e029c72c14610380578063f65fad28146103b8575b600080fd5b3480156100cb57600080fd5b506100ea60048036038101908080359060200190929190505050610450565b005b61011460048036038101908080359060200190929190803590602001909291905050506107d1565b005b61015460048036038101908080359060200190929190803573ffffffffffffffffffffffffffffffffffffffff169060200190929190505050610a6b565b604051808215151515815260200191505060405180910390f35b6101ac60048036038101908080359060200190929190803573ffffffffffffffffffffffffffffffffffffffff169060200190929190505050610b1a565b604051808215151515815260200191505060405180910390f35b3480156101d257600080fd5b506101f160048036038101908080359060200190929190505050610bc9565b604051808215151515815260200191505060405180910390f35b34801561021757600080fd5b5061023660048036038101908080359060200190929190505050610c2a565b604051808473ffffffffffffffffffffffffffffffffffffffff1673ffffffffffffffffffffffffffffffffffffffff168152602001838152602001828152602001935050505060405180910390f35b6102a460048036038101908080359060200190929190505050610c9e565b604051808215151515815260200191505060405180910390f35b3480156102ca57600080fd5b506102e960048036038101908080359060200190929190505050610d4c565b604051808215151515815260200191505060405180910390f35b61032160048036038101908080359060200190929190505050610ea5565b604051808215151515815260200191505060405180910390f35b34801561034757600080fd5b506103666004803603810190808035906020019092919050505061103c565b604051808215151515815260200191505060405180910390f35b61039e60048036038101908080359060200190929190505050611304565b604051808215151515815260200191505060405180910390f35b3480156103c457600080fd5b506103f9600480360381019080803573ffffffffffffffffffffffffffffffffffffffff1690602001909291905050506113b2565b6040518080602001828103825283818151815260200191508051906020019060200280838360005b8381101561043c578082015181840152602081019050610421565b505050509050019250505060405180910390f35b600080600061045e8461103c565b925042600080868152602001908152602001600020600c015411156106385760008085815260200190815260200160002060000160009054906101000a900473ffffffffffffffffffffffffffffffffffffffff1673ffffffffffffffffffffffffffffffffffffffff163373ffffffffffffffffffffffffffffffffffffffff161415156104ec57600080fd5b8215156106335761052f6064610521600d6000808981526020019081526020016000206002015461144990919063ffffffff16565b61148190919063ffffffff16565b9150610559826000808781526020019081526020016000206002015461149790919063ffffffff16565b5061058282600080878152602001908152602001600020600301546114b090919063ffffffff16565b5060008085815260200190815260200160002060020154905060008060008681526020019081526020016000206002018190555060008085815260200190815260200160002060000160009054906101000a900473ffffffffffffffffffffffffffffffffffffffff1673ffffffffffffffffffffffffffffffffffffffff166108fc829081150290604051600060405180830381858888f19350505050158015610631573d6000803e3d6000fd5b505b61071f565b3373ffffffffffffffffffffffffffffffffffffffff166108fc600080878152602001908152602001600020600701549081150290604051600060405180830381858888f19350505050158015610693573d6000803e3d6000fd5b50600080600086815260200190815260200160002060050160006101000a81548160ff021916908315150217905550600080600086815260200190815260200160002060050160026101000a81548160ff021916908315150217905550600160008086815260200190815260200160002060050160016101000a81548160ff0219169083151502179055505b60008060008681526020019081526020016000206003018190555060008085815260200190815260200160002060010160009054906101000a900473ffffffffffffffffffffffffffffffffffffffff1673ffffffffffffffffffffffffffffffffffffffff166108fc600080878152602001908152602001600020600301549081150290604051600060405180830381858888f193505050501580156107ca573d6000803e3d6000fd5b5050505050565b60008066038d7ea4c6800034101515156107ea57600080fd5b6107ff614e203461148190919063ffffffff16565b9150349050610817828261149790919063ffffffff16565b9050610200604051908101604052803373ffffffffffffffffffffffffffffffffffffffff168152602001600073ffffffffffffffffffffffffffffffffffffffff168152602001828152602001858152602001848152602001600115158152602001600015158152602001600115158152602001600254815260200183815260200160008152602001600081526020016000815260200162093a8081526020016108ce6276a700426114b090919063ffffffff16565b8152602001610ad5815250600080600254815260200190815260200160002060008201518160000160006101000a81548173ffffffffffffffffffffffffffffffffffffffff021916908373ffffffffffffffffffffffffffffffffffffffff16021790555060208201518160010160006101000a81548173ffffffffffffffffffffffffffffffffffffffff021916908373ffffffffffffffffffffffffffffffffffffffff16021790555060408201518160020155606082015181600301556080820151816004015560a08201518160050160006101000a81548160ff02191690831515021790555060c08201518160050160016101000a81548160ff02191690831515021790555060e08201518160050160026101000a81548160ff021916908315150217905550610100820151816006015561012082015181600701556101408201518160080155610160820151816009015561018082015181600a01556101a082015181600b01556101c082015181600c01556101e082015181600d0155905050600160026000828254019250508190555050505050565b6000803410151515610a7c57600080fd5b60008084815260200190815260200160002060000160009054906101000a900473ffffffffffffffffffffffffffffffffffffffff1673ffffffffffffffffffffffffffffffffffffffff168273ffffffffffffffffffffffffffffffffffffffff16141515610aeb57600080fd5b610b1334600080868152602001908152602001600020600201546114b090919063ffffffff16565b5092915050565b6000803410151515610b2b57600080fd5b60008084815260200190815260200160002060010160009054906101000a900473ffffffffffffffffffffffffffffffffffffffff1673ffffffffffffffffffffffffffffffffffffffff168273ffffffffffffffffffffffffffffffffffffffff16141515610b9a57600080fd5b610bc234600080868152602001908152602001600020600301546114b090919063ffffffff16565b5092915050565b6000806000600191508115610c2357600080858152602001908152602001600020600201549050610c1881600080878152602001908152602001600020600301546114b090919063ffffffff16565b50610c2284610450565b5b5050919050565b600080600080600085815260200190815260200160002060000160009054906101000a900473ffffffffffffffffffffffffffffffffffffffff1660008086815260200190815260200160002060020154600080878152602001908152602001600020600301549250925092509193909250565b6000803410151515610caf57600080fd5b60008083815260200190815260200160002060010160009054906101000a900473ffffffffffffffffffffffffffffffffffffffff1673ffffffffffffffffffffffffffffffffffffffff163373ffffffffffffffffffffffffffffffffffffffff16141515610d1e57600080fd5b610d4634600080858152602001908152602001600020600301546114b090919063ffffffff16565b50919050565b6000803373ffffffffffffffffffffffffffffffffffffffff1660008085815260200190815260200160002060000160009054906101000a900473ffffffffffffffffffffffffffffffffffffffff1673ffffffffffffffffffffffffffffffffffffffff16141515610dbe57600080fd5b600080600085815260200190815260200160002060050160026101000a81548160ff02191690831515021790555060008084815260200190815260200160002060020154905060008060008581526020019081526020016000206002018190555060008084815260200190815260200160002060000160009054906101000a900473ffffffffffffffffffffffffffffffffffffffff1673ffffffffffffffffffffffffffffffffffffffff166108fc829081150290604051600060405180830381858888f19350505050158015610e9a573d6000803e3d6000fd5b506001915050919050565b6000806000838152602001908152602001600020600301543410151515610ecb57600080fd5b6001151560008084815260200190815260200160002060050160029054906101000a900460ff161515141515610f0057600080fd5b42600080848152602001908152602001600020600a0181905550600160008084815260200190815260200160002060050160006101000a81548160ff021916908315150217905550600080600084815260200190815260200160002060050160026101000a81548160ff0219169083151502179055503360008084815260200190815260200160002060010160006101000a81548173ffffffffffffffffffffffffffffffffffffffff021916908373ffffffffffffffffffffffffffffffffffffffff160217905550600160003373ffffffffffffffffffffffffffffffffffffffff1673ffffffffffffffffffffffffffffffffffffffff16815260200190815260200160002082908060018154018082558091505090600182039060005260206000200160009091929091909150555060019050919050565b600080600061104a846114cc565b91506000821115156110ea576040517f08c379a000000000000000000000000000000000000000000000000000000000815260040180806020018281038252602e8152602001807f4572726f722c20746865726520617265206e6f206f75747374616e64696e672081526020017f7072656d69756d73206f7765642e00000000000000000000000000000000000081525060400191505060405180910390fd5b6000808581526020019081526020016000206003015482111561125357600080858152602001908152602001600020600301549050600080600086815260200190815260200160002060030181905550600160008086815260200190815260200160002060050160016101000a81548160ff021916908315150217905550600080600086815260200190815260200160002060050160006101000a81548160ff021916908315150217905550600080600086815260200190815260200160002060050160026101000a81548160ff021916908315150217905550600081111561124a5760008085815260200190815260200160002060000160009054906101000a900473ffffffffffffffffffffffffffffffffffffffff1673ffffffffffffffffffffffffffffffffffffffff166108fc829081150290604051600060405180830381858888f19350505050158015611248573d6000803e3d6000fd5b505b600192506112fd565b60008085815260200190815260200160002060000160009054906101000a900473ffffffffffffffffffffffffffffffffffffffff1673ffffffffffffffffffffffffffffffffffffffff166108fc839081150290604051600060405180830381858888f193505050501580156112ce573d6000803e3d6000fd5b506112f782600080878152602001908152602001600020600801546114b090919063ffffffff16565b50600092505b5050919050565b600080341015151561131557600080fd5b60008083815260200190815260200160002060000160009054906101000a900473ffffffffffffffffffffffffffffffffffffffff1673ffffffffffffffffffffffffffffffffffffffff163373ffffffffffffffffffffffffffffffffffffffff1614151561138457600080fd5b6113ac34600080858152602001908152602001600020600201546114b090919063ffffffff16565b50919050565b6060600160008373ffffffffffffffffffffffffffffffffffffffff1673ffffffffffffffffffffffffffffffffffffffff16815260200190815260200160002080548060200260200160405190810160405280929190818152602001828054801561143d57602002820191906000526020600020905b815481526020019060010190808311611429575b50505050509050919050565b60008083141561145c576000905061147b565b818302905081838281151561146d57fe5b0414151561147757fe5b8090505b92915050565b6000818381151561148e57fe5b04905092915050565b60008282111515156114a557fe5b818303905092915050565b600081830190508281101515156114c357fe5b80905092915050565b600080600080600080600080888152602001908152602001600020600a01549450600080888152602001908152602001600020600c0154421161150f5742611526565b600080888152602001908152602001600020600c01545b935061153b858561149790919063ffffffff16565b925061157a61156b620151806000808b8152602001908152602001600020600b015461144990919063ffffffff16565b8461148190919063ffffffff16565b91506115cb600080898152602001908152602001600020600801546115bd6000808b8152602001908152602001600020600401548561144990919063ffffffff16565b61149790919063ffffffff16565b905080955050505050509190505600a165627a7a7230582095e2651dd374f31c8d7fdc8a4634b4723ab34b2a9bb14c6ebd0f4cf7b86a657f0029",
  "source": "pragma solidity ^0.4.24;\r\n\r\nimport \"../node_modules/zeppelin-solidity/contracts/math/SafeMath.sol\";\r\n\r\ncontract cdpcds {\r\n    //THIS IS AN ADDITION\r\n    using SafeMath for uint256;\r\n\r\n    struct CDS {\r\n        address maker;\r\n        address taker;\r\n        uint makerCollateral;\r\n        uint takerCollateral;\r\n        uint premium;\r\n        bool matched;\r\n        bool closed;\r\n        bool matchable;\r\n        uint orderID;\r\n        uint expirationBounty;\r\n        uint payed;\r\n        uint owed;\r\n        uint filledTime;\r\n        uint payPeriod;\r\n        uint expiration;\r\n        uint cdpID;\r\n    }\r\n\r\n    mapping(uint => CDS)allCDSs;\r\n    mapping(address => uint[])holdings;\r\n\r\n    uint currentID = 0; \r\n   \r\n    function makeCDSOrder(uint _takerCollateral, uint _premium) public payable {\r\n        require(msg.value >= 1000000000000000);\r\n        uint expirationBounty = msg.value.div(20000);\r\n        uint collateral = msg.value;\r\n        collateral = collateral.sub(expirationBounty);\r\n        allCDSs[currentID] = CDS(msg.sender, 0x0, collateral, _takerCollateral, _premium, true, false,true, currentID, expirationBounty, 0, 0, 0, 7 days,now.add(90 days),2773);\r\n        currentID += 1;\r\n    }\r\n    //HELPER SHOW INFO FUNCTION::\r\n\r\n    function getCDS(uint _ID)public view returns(address, uint, uint ){\r\n        return (allCDSs[_ID].maker, allCDSs[_ID].makerCollateral, allCDSs[_ID].takerCollateral);\r\n    }\r\n\r\n    function viewHoldings(address _addr)public view returns(uint[]){\r\n        return holdings[_addr];        \r\n    }\r\n\r\n    \r\n    //END HLPERS\r\n    function fillCDSOrder(uint _ID)public payable returns (bool){\r\n        require (msg.value >= allCDSs[_ID].takerCollateral);\r\n        require(allCDSs[_ID].matchable==true);\r\n        allCDSs[_ID].filledTime = block.timestamp;\r\n        allCDSs[_ID].matched = true;\r\n        allCDSs[_ID].matchable = false;\r\n        allCDSs[_ID].taker = msg.sender;\r\n        holdings[msg.sender].push(_ID);\r\n\r\n        \r\n        return true;\r\n    }\r\n\r\n    function cancelCDSOrder(uint _ID) public returns (bool){\r\n        require(allCDSs[_ID].maker == msg.sender);\r\n        allCDSs[_ID].matchable =false ;\r\n        uint toTransfer = allCDSs[_ID].makerCollateral;\r\n        allCDSs[_ID].makerCollateral = 0;\r\n        allCDSs[_ID].maker.transfer(toTransfer);\r\n        return true;        \r\n    }\r\n    \r\n    function addMakerCollateral(uint _ID)public payable returns (bool){\r\n        require(msg.value >=0);\r\n        require(msg.sender == allCDSs[_ID].maker);\r\n        allCDSs[_ID].makerCollateral.add(msg.value);\r\n    }\r\n\r\n    function addMakerCollateralTo(uint _ID, address _to) public payable returns(bool){\r\n        require(msg.value >=0);\r\n        require(_to == allCDSs[_ID].maker);\r\n        allCDSs[_ID].makerCollateral.add(msg.value);\r\n    }\r\n    \r\n    function addTakerCollateral(uint _ID)public payable returns (bool){\r\n        require(msg.value >=0);\r\n        require(msg.sender == allCDSs[_ID].taker);\r\n        allCDSs[_ID].takerCollateral.add(msg.value);\r\n    }\r\n\r\n    function addTakerCollateralTo(uint _ID, address _to) public payable returns(bool){\r\n        require(msg.value >=0);\r\n        require(_to == allCDSs[_ID].taker);\r\n        allCDSs[_ID].takerCollateral.add(msg.value);\r\n    }\r\n\r\n    function _calculateOwed(uint _ID)internal view returns(uint){\r\n        uint start = allCDSs[_ID].filledTime;\r\n        uint current = block.timestamp > allCDSs[_ID].expiration ? allCDSs[_ID].expiration : block.timestamp;\r\n        uint delta = current.sub(start);\r\n        uint owedPeriod = uint(delta).div(uint(allCDSs[_ID].payPeriod).mul(86400));\r\n        uint outstanding = (owedPeriod.mul(allCDSs[_ID].premium)).sub(allCDSs[_ID].payed);\r\n        return outstanding;\r\n    }\r\n\r\n    function close(uint _ID)public {\r\n        bool underCollateral = requestPremium(_ID);        \r\n        if(allCDSs[_ID].expiration > block.timestamp){\r\n            require(msg.sender == allCDSs[_ID].maker);\r\n            if(!underCollateral){\r\n                uint earlyTermFee = (allCDSs[_ID].makerCollateral.mul(13)).div(100);\r\n                allCDSs[_ID].makerCollateral.sub(earlyTermFee);\r\n                allCDSs[_ID].takerCollateral.add(earlyTermFee);\r\n                uint makerPayout = allCDSs[_ID].makerCollateral;\r\n                allCDSs[_ID].makerCollateral = 0;\r\n                allCDSs[_ID].maker.transfer(makerPayout);\r\n            }\r\n        }\r\n        else{\r\n            msg.sender.transfer(allCDSs[_ID].expirationBounty); //this should probably get moved down 3 lines\r\n            allCDSs[_ID].matched = false;\r\n            allCDSs[_ID].matchable = false;\r\n            allCDSs[_ID].closed = true;\r\n        }\r\n        allCDSs[_ID].takerCollateral = 0;\r\n        allCDSs[_ID].taker.transfer(allCDSs[_ID].takerCollateral);\r\n    }\r\n    function requestPremium(uint _ID)public returns(bool){\r\n        uint owed = _calculateOwed(_ID);\r\n        require(owed > 0, \"Error, there are no outstanding premiums owed.\");\r\n        if(owed > allCDSs[_ID].takerCollateral){            \r\n            uint collateral = allCDSs[_ID].takerCollateral;\r\n            allCDSs[_ID].takerCollateral = 0;\r\n            allCDSs[_ID].closed = true;\r\n            allCDSs[_ID].matched = false;\r\n            allCDSs[_ID].matchable = false;\r\n            if(collateral > 0){\r\n                allCDSs[_ID].maker.transfer(collateral);\r\n            }\r\n            return(true);            \r\n        }\r\n        else{//Fix Later\r\n            allCDSs[_ID].maker.transfer(owed);\r\n            allCDSs[_ID].payed.add(owed);\r\n            return(false);\r\n        }\r\n    }\r\n\r\n    function reportLiquidation(uint _ID) public returns(bool){\r\n        bool verifiedLiquidation = true;\r\n        //insert some code to set verified liquidation to be the outcome of the oracle\r\n        if(verifiedLiquidation){\r\n            uint makerCollateral = allCDSs[_ID].makerCollateral;\r\n            allCDSs[_ID].takerCollateral.add(makerCollateral);\r\n            close(_ID);\r\n        }\r\n    }\r\n}\r\n",
  "sourcePath": "C:\\Users\\nicholas\\Desktop\\ethsf2\\contracts\\cdpcds.sol",
  "compiler": {
    "name": "solc",
    "version": "0.4.24+commit.e67f0147.Emscripten.clang"
  },
  "schemaVersion": "2.0.1",
  "updatedAt": "2018-10-07T10:31:21.751Z"
}