{
  "contractName": "cdpcds",
  "abi": [
    {
      "constant": false,
      "inputs": [
        {
          "name": "_premium",
          "type": "uint256"
        }
      ],
      "name": "makeCDSOrder",
      "outputs": [],
      "payable": true,
      "stateMutability": "payable",
      "type": "function"
    },
    {
      "constant": true,
      "inputs": [
        {
          "name": "_ID",
          "type": "uint256"
        }
      ],
      "name": "getInfo",
      "outputs": [
        {
          "name": "",
          "type": "address"
        },
        {
          "name": "",
          "type": "uint256"
        },
        {
          "name": "",
          "type": "address"
        },
        {
          "name": "",
          "type": "uint256"
        },
        {
          "name": "",
          "type": "uint256"
        },
        {
          "name": "",
          "type": "uint256"
        },
        {
          "name": "",
          "type": "uint256"
        }
      ],
      "payable": false,
      "stateMutability": "view",
      "type": "function"
    },
    {
      "constant": true,
      "inputs": [
        {
          "name": "_addr",
          "type": "address"
        }
      ],
      "name": "getCollateralBalance",
      "outputs": [
        {
          "name": "",
          "type": "uint256"
        }
      ],
      "payable": false,
      "stateMutability": "view",
      "type": "function"
    },
    {
      "constant": false,
      "inputs": [
        {
          "name": "_ID",
          "type": "uint256"
        },
        {
          "name": "_testDate",
          "type": "uint256"
        }
      ],
      "name": "fillCDSOrder",
      "outputs": [
        {
          "name": "",
          "type": "bool"
        }
      ],
      "payable": true,
      "stateMutability": "payable",
      "type": "function"
    },
    {
      "constant": false,
      "inputs": [
        {
          "name": "_ID",
          "type": "uint256"
        }
      ],
      "name": "cancelCDSOrder",
      "outputs": [
        {
          "name": "",
          "type": "bool"
        }
      ],
      "payable": false,
      "stateMutability": "nonpayable",
      "type": "function"
    },
    {
      "constant": true,
      "inputs": [
        {
          "name": "_ID",
          "type": "uint256"
        },
        {
          "name": "_testDate",
          "type": "uint256"
        }
      ],
      "name": "_calculateOwed",
      "outputs": [
        {
          "name": "",
          "type": "uint256"
        }
      ],
      "payable": false,
      "stateMutability": "view",
      "type": "function"
    },
    {
      "constant": false,
      "inputs": [
        {
          "name": "newDate",
          "type": "uint256"
        }
      ],
      "name": "setSetTestDate",
      "outputs": [
        {
          "name": "",
          "type": "bool"
        }
      ],
      "payable": false,
      "stateMutability": "nonpayable",
      "type": "function"
    },
    {
      "constant": false,
      "inputs": [
        {
          "name": "_ID",
          "type": "uint256"
        },
        {
          "name": "_testDate",
          "type": "uint256"
        }
      ],
      "name": "close",
      "outputs": [],
      "payable": false,
      "stateMutability": "nonpayable",
      "type": "function"
    },
    {
      "constant": false,
      "inputs": [
        {
          "name": "_ID",
          "type": "uint256"
        },
        {
          "name": "_testDate",
          "type": "uint256"
        }
      ],
      "name": "requestPremium",
      "outputs": [
        {
          "name": "",
          "type": "bool"
        }
      ],
      "payable": false,
      "stateMutability": "nonpayable",
      "type": "function"
    },
    {
      "constant": false,
      "inputs": [
        {
          "name": "_ID",
          "type": "uint256"
        }
      ],
      "name": "reportLiquidation",
      "outputs": [
        {
          "name": "",
          "type": "bool"
        }
      ],
      "payable": false,
      "stateMutability": "nonpayable",
      "type": "function"
    }
  ],
  "bytecode": "0x6080604052306000806101000a81548173ffffffffffffffffffffffffffffffffffffffff021916908373ffffffffffffffffffffffffffffffffffffffff16021790555042600155600060045534801561005957600080fd5b50611429806100696000396000f3006080604052600436106100a4576000357c0100000000000000000000000000000000000000000000000000000000900463ffffffff1680631a3cd59a146100a95780632703ee851461016c578063270fccfe146101c357806350d24acd14610212578063596c8976146102325780635ae097901461026957806360ee9de4146102ae5780637e74c3f0146102f357806381b977ff1461033e57806386a7d2f114610380575b600080fd5b3480156100b557600080fd5b506100d4600480360381019080803590602001909291905050506103c5565b604051808873ffffffffffffffffffffffffffffffffffffffff1673ffffffffffffffffffffffffffffffffffffffff1681526020018781526020018673ffffffffffffffffffffffffffffffffffffffff1673ffffffffffffffffffffffffffffffffffffffff16815260200185815260200184815260200183815260200182815260200197505050505050505060405180910390f35b34801561017857600080fd5b506101ad600480360381019080803573ffffffffffffffffffffffffffffffffffffffff1690602001909291905050506104ec565b6040518082815260200191505060405180910390f35b3480156101cf57600080fd5b506101f86004803603810190808035906020019092919080359060200190929190505050610535565b604051808215151515815260200191505060405180910390f35b61023060048036038101908080359060200190929190505050610856565b005b34801561023e57600080fd5b506102676004803603810190808035906020019092919080359060200190929190505050610ae6565b005b34801561027557600080fd5b5061029460048036038101908080359060200190929190505050610df2565b604051808215151515815260200191505060405180910390f35b3480156102ba57600080fd5b506102d960048036038101908080359060200190929190505050610f43565b604051808215151515815260200191505060405180910390f35b3480156102ff57600080fd5b506103286004803603810190808035906020019092919080359060200190929190505050610f55565b6040518082815260200191505060405180910390f35b6103666004803603810190808035906020019092919080359060200190929190505050611065565b604051808215151515815260200191505060405180910390f35b34801561038c57600080fd5b506103ab60048036038101908080359060200190929190505050611230565b604051808215151515815260200191505060405180910390f35b60008060008060008060006002600089815260200190815260200160002060000160009054906101000a900473ffffffffffffffffffffffffffffffffffffffff16600260008a815260200190815260200160002060020154600260008b815260200190815260200160002060010160009054906101000a900473ffffffffffffffffffffffffffffffffffffffff16600260008c815260200190815260200160002060030154600260008d815260200190815260200160002060040154600260008e8152602001908152602001600020600701546000809054906101000a900473ffffffffffffffffffffffffffffffffffffffff1673ffffffffffffffffffffffffffffffffffffffff16319650965096509650965096509650919395979092949650565b6000600360008373ffffffffffffffffffffffffffffffffffffffff1673ffffffffffffffffffffffffffffffffffffffff168152602001908152602001600020549050919050565b6000806000806105458686610f55565b9250600260008781526020019081526020016000206003015491506000831415610572576000935061084d565b818311156107375760006002600088815260200190815260200160002060030181905550600082111561061d576002600087815260200190815260200160002060000160009054906101000a900473ffffffffffffffffffffffffffffffffffffffff1673ffffffffffffffffffffffffffffffffffffffff166108fc839081150290604051600060405180830381858888f1935050505015801561061b573d6000803e3d6000fd5b505b6002806000888152602001908152602001600020600501819055506106776002600088815260200190815260200160002060030154600260008981526020019081526020016000206002015461137a90919063ffffffff16565b905060006002600088815260200190815260200160002060030181905550600060026000888152602001908152602001600020600201819055506002600087815260200190815260200160002060000160009054906101000a900473ffffffffffffffffffffffffffffffffffffffff1673ffffffffffffffffffffffffffffffffffffffff166108fc829081150290604051600060405180830381858888f1935050505015801561072d573d6000803e3d6000fd5b506001935061084d565b818311151561084c5761076983600260008981526020019081526020016000206003015461139690919063ffffffff16565b60026000888152602001908152602001600020600301819055506107ac83600260008981526020019081526020016000206007015461137a90919063ffffffff16565b60026000888152602001908152602001600020600701819055506002600087815260200190815260200160002060000160009054906101000a900473ffffffffffffffffffffffffffffffffffffffff1673ffffffffffffffffffffffffffffffffffffffff166108fc849081150290604051600060405180830381858888f19350505050158015610842573d6000803e3d6000fd5b506000935061084d565b5b50505092915050565b600066038d7ea4c68000341015151561086e57600080fd5b3490506101a0604051908101604052803373ffffffffffffffffffffffffffffffffffffffff168152602001600073ffffffffffffffffffffffffffffffffffffffff1681526020018281526020016000815260200183815260200160008152602001600454815260200160008152602001600081526020016000815260200162093a80815260200161090d6276a7004261137a90919063ffffffff16565b8152602001610ad581525060026000600454815260200190815260200160002060008201518160000160006101000a81548173ffffffffffffffffffffffffffffffffffffffff021916908373ffffffffffffffffffffffffffffffffffffffff16021790555060208201518160010160006101000a81548173ffffffffffffffffffffffffffffffffffffffff021916908373ffffffffffffffffffffffffffffffffffffffff16021790555060408201518160020155606082015181600301556080820151816004015560a0820151816005015560c0820151816006015560e082015181600701556101008201518160080155610120820151816009015561014082015181600a015561016082015181600b015561018082015181600c0155905050610a47600160045461137a90919063ffffffff16565b600481905550610a9f34600360003373ffffffffffffffffffffffffffffffffffffffff1673ffffffffffffffffffffffffffffffffffffffff1681526020019081526020016000205461137a90919063ffffffff16565b600360003373ffffffffffffffffffffffffffffffffffffffff1673ffffffffffffffffffffffffffffffffffffffff168152602001908152602001600020819055505050565b60008060008060006002600088815260200190815260200160002060000160009054906101000a900473ffffffffffffffffffffffffffffffffffffffff1673ffffffffffffffffffffffffffffffffffffffff163373ffffffffffffffffffffffffffffffffffffffff16141515610b5e57600080fd5b60008614610b6c5785610b6e565b425b9450610b7a8787610535565b935083158015610b9f575060026000888152602001908152602001600020600b015485105b15610c6a57610be16064610bd3600d600260008c8152602001908152602001600020600201546113af90919063ffffffff16565b6113e790919063ffffffff16565b9250610c0c83600260008a81526020019081526020016000206002015461139690919063ffffffff16565b6002600089815260200190815260200160002060020181905550610c4f83600260008a81526020019081526020016000206003015461137a90919063ffffffff16565b60026000898152602001908152602001600020600301819055505b60028060008981526020019081526020016000206005018190555060026000888152602001908152602001600020600301549150600060026000898152602001908152602001600020600301819055506002600088815260200190815260200160002060010160009054906101000a900473ffffffffffffffffffffffffffffffffffffffff1673ffffffffffffffffffffffffffffffffffffffff166108fc839081150290604051600060405180830381858888f19350505050158015610d36573d6000803e3d6000fd5b5060026000888152602001908152602001600020600201549050600060026000898152602001908152602001600020600201819055506002600088815260200190815260200160002060000160009054906101000a900473ffffffffffffffffffffffffffffffffffffffff1673ffffffffffffffffffffffffffffffffffffffff166108fc829081150290604051600060405180830381858888f19350505050158015610de8573d6000803e3d6000fd5b5050505050505050565b600080600060026000858152602001908152602001600020600201549150610e3960026000868152602001908152602001600020600301548361137a90919063ffffffff16565b60026000868152602001908152602001600020600301819055506000600260008681526020019081526020016000206002018190555060026000858152602001908152602001600020600301549050600060026000868152602001908152602001600020600301819055506002600085815260200190815260200160002060010160009054906101000a900473ffffffffffffffffffffffffffffffffffffffff1673ffffffffffffffffffffffffffffffffffffffff166108fc829081150290604051600060405180830381858888f19350505050158015610f20573d6000803e3d6000fd5b506002806000868152602001908152602001600020600501819055505050919050565b60008160018190555060019050919050565b60008060008060008060008714610f6c5786610f6e565b425b945060026000898152602001908152602001600020600b0154851015610f945784610fac565b60026000898152602001908152602001600020600b01545b9350610fd7600260008a8152602001908152602001600020600901548561139690919063ffffffff16565b9250611002600260008a8152602001908152602001600020600a0154846113e790919063ffffffff16565b9150611055600260008a815260200190815260200160002060070154611047600260008c815260200190815260200160002060040154856113af90919063ffffffff16565b61139690919063ffffffff16565b9050809550505050505092915050565b600080600260008581526020019081526020016000206004015434101580156110a4575060006002600086815260200190815260200160002060050154145b15156110af57600080fd5b600083146110bd57826110bf565b425b90506110ea34600260008781526020019081526020016000206003015461137a90919063ffffffff16565b600260008681526020019081526020016000206003018190555080600260008681526020019081526020016000206009018190555060016002600086815260200190815260200160002060050181905550336002600086815260200190815260200160002060010160006101000a81548173ffffffffffffffffffffffffffffffffffffffff021916908373ffffffffffffffffffffffffffffffffffffffff1602179055506111e234600360003373ffffffffffffffffffffffffffffffffffffffff1673ffffffffffffffffffffffffffffffffffffffff1681526020019081526020016000205461137a90919063ffffffff16565b600360003373ffffffffffffffffffffffffffffffffffffffff1673ffffffffffffffffffffffffffffffffffffffff16815260200190815260200160002081905550600191505092915050565b6000803373ffffffffffffffffffffffffffffffffffffffff166002600085815260200190815260200160002060000160009054906101000a900473ffffffffffffffffffffffffffffffffffffffff1673ffffffffffffffffffffffffffffffffffffffff161415156112a357600080fd5b60028060008581526020019081526020016000206005018190555060026000848152602001908152602001600020600201549050600060026000858152602001908152602001600020600201819055506002600084815260200190815260200160002060000160009054906101000a900473ffffffffffffffffffffffffffffffffffffffff1673ffffffffffffffffffffffffffffffffffffffff166108fc829081150290604051600060405180830381858888f1935050505015801561136f573d6000803e3d6000fd5b506001915050919050565b6000818301905082811015151561138d57fe5b80905092915050565b60008282111515156113a457fe5b818303905092915050565b6000808314156113c257600090506113e1565b81830290508183828115156113d357fe5b041415156113dd57fe5b8090505b92915050565b600081838115156113f457fe5b049050929150505600a165627a7a72305820d16e85f486f81a15f9ac3a31cf8f5efeb91c06563f36a69c8794588ac0de183c0029",
  "source": "// solium-disable linebreak-style\r\npragma solidity ^0.4.24;\r\n\r\nimport \"../node_modules/zeppelin-solidity/contracts/math/SafeMath.sol\";\r\n\r\ncontract cdpcds {\r\n    //THIS IS AN ADDITION\r\n    using SafeMath for uint256;\r\n    \r\n    address cont = this;\r\n    uint testDate = block.timestamp;\r\n\r\n    struct CDS {\r\n        address maker;\r\n        address taker;\r\n        uint makerCollateral;\r\n        uint takerCollateral;\r\n        uint premium;\r\n        //0=unmatched, 1=matched+open, 2=closed\r\n        uint status;\r\n        uint orderID;\r\n        uint payed;\r\n        uint owed;\r\n        uint filledTime;\r\n        uint payPeriod;\r\n        uint expiration;\r\n        uint cdpID;\r\n        //uint expirationBounty;\r\n    }\r\n\r\n    mapping(uint => CDS)allCDSs;\r\n    mapping(address => uint)collateralBalances; // for testing purposes\r\n\r\n    uint currentID = 0; \r\n   \r\n    function makeCDSOrder(uint _premium)public payable {\r\n        require(msg.value >= 1e15);\r\n        uint collateral = msg.value;\r\n        allCDSs[currentID] = CDS(msg.sender, 0x0, collateral, 0, _premium, 0, currentID, 0, 0, 0, 7 days,now.add(90 days),2773);\r\n        currentID = currentID.add(1);\r\n        collateralBalances[msg.sender] = collateralBalances[msg.sender].add(msg.value);\r\n    }\r\n    //HELPER SHOW INFO FUNCTION::\r\n\r\n    function getInfo(uint _ID) public view returns (address, uint, address, uint, uint, uint, uint){\r\n        return(allCDSs[_ID].maker, allCDSs[_ID].makerCollateral, allCDSs[_ID].taker, allCDSs[_ID].takerCollateral, allCDSs[_ID].premium, allCDSs[_ID].payed, cont.balance);\r\n    }\r\n    //for testing...\r\n    function getCollateralBalance(address _addr)public view returns(uint){\r\n        return collateralBalances[_addr];\r\n    }\r\n    \r\n    //END HLPERS\r\n    function fillCDSOrder(uint _ID, uint _testDate)public payable returns (bool){\r\n        require (msg.value >= allCDSs[_ID].premium && allCDSs[_ID].status==0);\r\n        uint current = _testDate==0 ? block.timestamp : _testDate;\r\n        allCDSs[_ID].takerCollateral = allCDSs[_ID].takerCollateral.add(msg.value);\r\n        allCDSs[_ID].filledTime = current;\r\n        allCDSs[_ID].status = 1;\r\n        allCDSs[_ID].taker = msg.sender;\r\n        collateralBalances[msg.sender] =  collateralBalances[msg.sender].add(msg.value);\r\n        return true;\r\n    }\r\n\r\n    function cancelCDSOrder(uint _ID) public returns (bool){\r\n        require(allCDSs[_ID].maker == msg.sender);\r\n        allCDSs[_ID].status=2;\r\n        uint toTransfer = allCDSs[_ID].makerCollateral;\r\n        allCDSs[_ID].makerCollateral = 0;\r\n        allCDSs[_ID].maker.transfer(toTransfer);\r\n        return true;        \r\n    }\r\n    \r\n    function _calculateOwed(uint _ID, uint _testDate)public view returns(uint){\r\n        uint current = _testDate==0 ? block.timestamp : _testDate;\r\n        uint earlier = current >= allCDSs[_ID].expiration ? allCDSs[_ID].expiration : current;\r\n        uint delta = earlier.sub(allCDSs[_ID].filledTime);\r\n        uint owedPayments = delta.div(allCDSs[_ID].payPeriod);\r\n        uint outstanding = (owedPayments.mul(allCDSs[_ID].premium)).sub(allCDSs[_ID].payed);\r\n        return(outstanding);\r\n    }\r\n\r\n    function setSetTestDate(uint newDate)public returns(bool){\r\n        testDate = newDate;\r\n        return(true);\r\n    }\r\n\r\n    function close(uint _ID, uint _testDate)public {\r\n        require(msg.sender == allCDSs[_ID].maker);\r\n        uint current = _testDate==0 ? block.timestamp : _testDate;\r\n        bool underCollateral = requestPremium(_ID, _testDate); //requestPremium requires no outstanding balance. stack is cleared and state is reversted. need another solution       \r\n        if(!underCollateral && (current < allCDSs[_ID].expiration)){\r\n            uint earlyTermFee = (allCDSs[_ID].makerCollateral.mul(13)).div(100);\r\n            allCDSs[_ID].makerCollateral = allCDSs[_ID].makerCollateral.sub(earlyTermFee);\r\n            allCDSs[_ID].takerCollateral = allCDSs[_ID].takerCollateral.add(earlyTermFee);                              \r\n        }\r\n        //msg.sender.transfer(allCDSs[_ID].expirationBounty);\r\n        allCDSs[_ID].status=2;\r\n        uint takerPayout = allCDSs[_ID].takerCollateral;\r\n        allCDSs[_ID].takerCollateral = 0;\r\n        allCDSs[_ID].taker.transfer(takerPayout);\r\n        uint makerPayout = allCDSs[_ID].makerCollateral;\r\n        allCDSs[_ID].makerCollateral = 0;\r\n        allCDSs[_ID].maker.transfer(makerPayout);\r\n    }\r\n\r\n    function requestPremium(uint _ID, uint _testDate)public returns(bool){\r\n        uint owed = _calculateOwed(_ID, _testDate);\r\n        //add closed case\r\n        //uint owed = allCDSs[_ID].premium;\r\n        uint collateral = allCDSs[_ID].takerCollateral;\r\n\r\n        if(owed==0) return(false);\r\n        if(owed > collateral){            \r\n            allCDSs[_ID].takerCollateral = 0;\r\n            if(collateral>0) allCDSs[_ID].maker.transfer(collateral);\r\n            allCDSs[_ID].status=2;\r\n            uint makerPayout = (allCDSs[_ID].makerCollateral).add(allCDSs[_ID].takerCollateral);\r\n            allCDSs[_ID].takerCollateral = 0;\r\n            allCDSs[_ID].makerCollateral = 0;\r\n            allCDSs[_ID].maker.transfer(makerPayout);\r\n            return(true);\t\t\t             \r\n        }\r\n        if(owed <= collateral){//Fix Later\r\n            allCDSs[_ID].takerCollateral = allCDSs[_ID].takerCollateral.sub(owed);\r\n            allCDSs[_ID].payed = allCDSs[_ID].payed.add(owed);\r\n            allCDSs[_ID].maker.transfer(owed);            \r\n            return(false);\r\n        }\r\n    }\r\n\r\n    function reportLiquidation(uint _ID)public returns(bool){\r\n        //add closed case\r\n        uint collateral = allCDSs[_ID].makerCollateral;\r\n        allCDSs[_ID].takerCollateral = collateral.add(allCDSs[_ID].takerCollateral);\r\n        allCDSs[_ID].makerCollateral = 0;\r\n        uint takerPayout = allCDSs[_ID].takerCollateral;\r\n        allCDSs[_ID].takerCollateral = 0;\r\n        allCDSs[_ID].taker.transfer(takerPayout);\r\n        allCDSs[_ID].status=2;\r\n    }\r\n    \r\n\r\n    /* function addMakerCollateral(uint _ID)public payable returns (bool){\r\n        require(msg.value >=0);\r\n        require(msg.sender == allCDSs[_ID].maker);\r\n        allCDSs[_ID].makerCollateral.add(msg.value);\r\n    }\r\n\r\n    function addMakerCollateralTo(uint _ID, address _to) public payable returns(bool){\r\n        require(msg.value >=0);\r\n        require(_to == allCDSs[_ID].maker);\r\n        allCDSs[_ID].makerCollateral.add(msg.value);\r\n    }\r\n    \r\n    function addTakerCollateral(uint _ID)public payable returns (bool){\r\n        require(msg.value >=0);\r\n        require(msg.sender == allCDSs[_ID].taker);\r\n        allCDSs[_ID].takerCollateral.add(msg.value);\r\n    }\r\n\r\n    function addTakerCollateralTo(uint _ID, address _to) public payable returns(bool){\r\n        require(msg.value >=0);\r\n        require(_to == allCDSs[_ID].taker);\r\n        allCDSs[_ID].takerCollateral.add(msg.value);\r\n    } */\r\n\r\n    //TODO: finish Collateral balance tracking for testing (removed or added where apropreate)\r\n\r\n}",
  "sourcePath": "C:\\Users\\nicholas\\Desktop\\ethsf2\\contracts\\cdpcds.sol",
  "compiler": {
    "name": "solc",
    "version": "0.4.24+commit.e67f0147.Emscripten.clang"
  },
  "schemaVersion": "2.0.1",
  "updatedAt": "2018-10-11T06:52:49.209Z"
}