{
  "contractName": "cdpcds",
  "abi": [
    {
      "constant": false,
      "inputs": [
        {
          "name": "_premium",
          "type": "uint256"
        }
      ],
      "name": "makeCDSOrder",
      "outputs": [],
      "payable": true,
      "stateMutability": "payable",
      "type": "function"
    },
    {
      "constant": true,
      "inputs": [
        {
          "name": "_ID",
          "type": "uint256"
        }
      ],
      "name": "getInfo",
      "outputs": [
        {
          "name": "",
          "type": "address"
        },
        {
          "name": "",
          "type": "uint256"
        },
        {
          "name": "",
          "type": "address"
        },
        {
          "name": "",
          "type": "uint256"
        },
        {
          "name": "",
          "type": "uint256"
        },
        {
          "name": "",
          "type": "uint256"
        },
        {
          "name": "",
          "type": "uint256"
        }
      ],
      "payable": false,
      "stateMutability": "view",
      "type": "function"
    },
    {
      "constant": true,
      "inputs": [
        {
          "name": "_addr",
          "type": "address"
        }
      ],
      "name": "getCollateralBalance",
      "outputs": [
        {
          "name": "",
          "type": "uint256"
        }
      ],
      "payable": false,
      "stateMutability": "view",
      "type": "function"
    },
    {
      "constant": false,
      "inputs": [
        {
          "name": "_ID",
          "type": "uint256"
        },
        {
          "name": "_testDate",
          "type": "uint256"
        }
      ],
      "name": "fillCDSOrder",
      "outputs": [
        {
          "name": "",
          "type": "bool"
        }
      ],
      "payable": true,
      "stateMutability": "payable",
      "type": "function"
    },
    {
      "constant": false,
      "inputs": [
        {
          "name": "_ID",
          "type": "uint256"
        }
      ],
      "name": "cancelCDSOrder",
      "outputs": [
        {
          "name": "",
          "type": "bool"
        }
      ],
      "payable": false,
      "stateMutability": "nonpayable",
      "type": "function"
    },
    {
      "constant": true,
      "inputs": [
        {
          "name": "_ID",
          "type": "uint256"
        },
        {
          "name": "_testDate",
          "type": "uint256"
        }
      ],
      "name": "_calculateOwed",
      "outputs": [
        {
          "name": "",
          "type": "uint256"
        }
      ],
      "payable": false,
      "stateMutability": "view",
      "type": "function"
    },
    {
      "constant": false,
      "inputs": [
        {
          "name": "_ID",
          "type": "uint256"
        },
        {
          "name": "newDate",
          "type": "uint256"
        }
      ],
      "name": "setSetExpirationDate",
      "outputs": [
        {
          "name": "",
          "type": "bool"
        }
      ],
      "payable": false,
      "stateMutability": "nonpayable",
      "type": "function"
    },
    {
      "constant": false,
      "inputs": [
        {
          "name": "_ID",
          "type": "uint256"
        },
        {
          "name": "_testDate",
          "type": "uint256"
        }
      ],
      "name": "close",
      "outputs": [],
      "payable": false,
      "stateMutability": "nonpayable",
      "type": "function"
    },
    {
      "constant": false,
      "inputs": [
        {
          "name": "_ID",
          "type": "uint256"
        },
        {
          "name": "_testDate",
          "type": "uint256"
        }
      ],
      "name": "requestPremium",
      "outputs": [
        {
          "name": "",
          "type": "bool"
        }
      ],
      "payable": false,
      "stateMutability": "nonpayable",
      "type": "function"
    },
    {
      "constant": false,
      "inputs": [
        {
          "name": "_ID",
          "type": "uint256"
        }
      ],
      "name": "reportLiquidation",
      "outputs": [
        {
          "name": "",
          "type": "bool"
        }
      ],
      "payable": false,
      "stateMutability": "nonpayable",
      "type": "function"
    }
  ],
  "bytecode": "0x6080604052306000806101000a81548173ffffffffffffffffffffffffffffffffffffffff021916908373ffffffffffffffffffffffffffffffffffffffff16021790555042600155600060045534801561005957600080fd5b506115a0806100696000396000f3006080604052600436106100a4576000357c0100000000000000000000000000000000000000000000000000000000900463ffffffff1680631a3cd59a146100a95780632703ee851461016c578063270fccfe146101c357806350d24acd14610212578063596c8976146102325780635ae09790146102695780636f976181146102ae5780637e74c3f0146102fd57806381b977ff1461034857806386a7d2f11461038a575b600080fd5b3480156100b557600080fd5b506100d4600480360381019080803590602001909291905050506103cf565b604051808873ffffffffffffffffffffffffffffffffffffffff1673ffffffffffffffffffffffffffffffffffffffff1681526020018781526020018673ffffffffffffffffffffffffffffffffffffffff1673ffffffffffffffffffffffffffffffffffffffff16815260200185815260200184815260200183815260200182815260200197505050505050505060405180910390f35b34801561017857600080fd5b506101ad600480360381019080803573ffffffffffffffffffffffffffffffffffffffff1690602001909291905050506104f6565b6040518082815260200191505060405180910390f35b3480156101cf57600080fd5b506101f8600480360381019080803590602001909291908035906020019092919050505061053f565b604051808215151515815260200191505060405180910390f35b61023060048036038101908080359060200190929190505050610994565b005b34801561023e57600080fd5b506102676004803603810190808035906020019092919080359060200190929190505050610c24565b005b34801561027557600080fd5b5061029460048036038101908080359060200190929190505050610f54565b604051808215151515815260200191505060405180910390f35b3480156102ba57600080fd5b506102e360048036038101908080359060200190929190803590602001909291905050506110a5565b604051808215151515815260200191505060405180910390f35b34801561030957600080fd5b5061033260048036038101908080359060200190929190803590602001909291905050506110cc565b6040518082815260200191505060405180910390f35b61037060048036038101908080359060200190929190803590602001909291905050506111dc565b604051808215151515815260200191505060405180910390f35b34801561039657600080fd5b506103b5600480360381019080803590602001909291905050506113a7565b604051808215151515815260200191505060405180910390f35b60008060008060008060006002600089815260200190815260200160002060000160009054906101000a900473ffffffffffffffffffffffffffffffffffffffff16600260008a815260200190815260200160002060020154600260008b815260200190815260200160002060010160009054906101000a900473ffffffffffffffffffffffffffffffffffffffff16600260008c815260200190815260200160002060030154600260008d815260200190815260200160002060040154600260008e8152602001908152602001600020600701546000809054906101000a900473ffffffffffffffffffffffffffffffffffffffff1673ffffffffffffffffffffffffffffffffffffffff16319650965096509650965096509650919395979092949650565b6000600360008373ffffffffffffffffffffffffffffffffffffffff1673ffffffffffffffffffffffffffffffffffffffff168152602001908152602001600020549050919050565b600080600080600061055187876110cc565b93506002600088815260200190815260200160002060030154925060009150600090506000841415610586576000945061098a565b828411156106d557600280600089815260200190815260200160002060050181905550600060026000898152602001908152602001600020600301819055506105ee83600260008a8152602001908152602001600020600201546114f190919063ffffffff16565b9150600060026000898152602001908152602001600020600201819055506002600088815260200190815260200160002060000160009054906101000a900473ffffffffffffffffffffffffffffffffffffffff1673ffffffffffffffffffffffffffffffffffffffff166108fc839081150290604051600060405180830381858888f19350505050158015610688573d6000803e3d6000fd5b506106b282600260008a8152602001908152602001600020600701546114f190919063ffffffff16565b60026000898152602001908152602001600020600701819055506001945061098a565b82841115156109895761070784600260008a81526020019081526020016000206003015461150d90919063ffffffff16565b600260008981526020019081526020016000206003018190555061074a84600260008a8152602001908152602001600020600701546114f190919063ffffffff16565b60026000898152602001908152602001600020600701819055506002600088815260200190815260200160002060000160009054906101000a900473ffffffffffffffffffffffffffffffffffffffff1673ffffffffffffffffffffffffffffffffffffffff166108fc859081150290604051600060405180830381858888f193505050501580156107e0573d6000803e3d6000fd5b5060026000888152602001908152602001600020600b01548610151561098057600280600089815260200190815260200160002060050181905550600260008881526020019081526020016000206002015491506002600088815260200190815260200160002060030154905060006002600089815260200190815260200160002060020181905550600060026000898152602001908152602001600020600301819055506002600088815260200190815260200160002060000160009054906101000a900473ffffffffffffffffffffffffffffffffffffffff1673ffffffffffffffffffffffffffffffffffffffff166108fc839081150290604051600060405180830381858888f19350505050158015610901573d6000803e3d6000fd5b506002600088815260200190815260200160002060010160009054906101000a900473ffffffffffffffffffffffffffffffffffffffff1673ffffffffffffffffffffffffffffffffffffffff166108fc829081150290604051600060405180830381858888f1935050505015801561097e573d6000803e3d6000fd5b505b6000945061098a565b5b5050505092915050565b600066038d7ea4c6800034101515156109ac57600080fd5b3490506101a0604051908101604052803373ffffffffffffffffffffffffffffffffffffffff168152602001600073ffffffffffffffffffffffffffffffffffffffff1681526020018281526020016000815260200183815260200160008152602001600454815260200160008152602001600081526020016000815260200162093a808152602001610a4b622e2480426114f190919063ffffffff16565b8152602001610ad581525060026000600454815260200190815260200160002060008201518160000160006101000a81548173ffffffffffffffffffffffffffffffffffffffff021916908373ffffffffffffffffffffffffffffffffffffffff16021790555060208201518160010160006101000a81548173ffffffffffffffffffffffffffffffffffffffff021916908373ffffffffffffffffffffffffffffffffffffffff16021790555060408201518160020155606082015181600301556080820151816004015560a0820151816005015560c0820151816006015560e082015181600701556101008201518160080155610120820151816009015561014082015181600a015561016082015181600b015561018082015181600c0155905050610b8560016004546114f190919063ffffffff16565b600481905550610bdd34600360003373ffffffffffffffffffffffffffffffffffffffff1673ffffffffffffffffffffffffffffffffffffffff168152602001908152602001600020546114f190919063ffffffff16565b600360003373ffffffffffffffffffffffffffffffffffffffff1673ffffffffffffffffffffffffffffffffffffffff168152602001908152602001600020819055505050565b60008060008060006002600088815260200190815260200160002060000160009054906101000a900473ffffffffffffffffffffffffffffffffffffffff1673ffffffffffffffffffffffffffffffffffffffff163373ffffffffffffffffffffffffffffffffffffffff16141515610c9c57600080fd5b60008614610caa5785610cac565b425b9450610cb8878761053f565b9350600280600089815260200190815260200160002060050154101515610cde57600080fd5b83158015610d01575060026000888152602001908152602001600020600b015485105b15610dcc57610d436064610d35600d600260008c81526020019081526020016000206002015461152690919063ffffffff16565b61155e90919063ffffffff16565b9250610d6e83600260008a81526020019081526020016000206002015461150d90919063ffffffff16565b6002600089815260200190815260200160002060020181905550610db183600260008a8152602001908152602001600020600301546114f190919063ffffffff16565b60026000898152602001908152602001600020600301819055505b60028060008981526020019081526020016000206005018190555060026000888152602001908152602001600020600301549150600060026000898152602001908152602001600020600301819055506002600088815260200190815260200160002060010160009054906101000a900473ffffffffffffffffffffffffffffffffffffffff1673ffffffffffffffffffffffffffffffffffffffff166108fc839081150290604051600060405180830381858888f19350505050158015610e98573d6000803e3d6000fd5b5060026000888152602001908152602001600020600201549050600060026000898152602001908152602001600020600201819055506002600088815260200190815260200160002060000160009054906101000a900473ffffffffffffffffffffffffffffffffffffffff1673ffffffffffffffffffffffffffffffffffffffff166108fc829081150290604051600060405180830381858888f19350505050158015610f4a573d6000803e3d6000fd5b5050505050505050565b600080600060026000858152602001908152602001600020600201549150610f9b6002600086815260200190815260200160002060030154836114f190919063ffffffff16565b60026000868152602001908152602001600020600301819055506000600260008681526020019081526020016000206002018190555060026000858152602001908152602001600020600301549050600060026000868152602001908152602001600020600301819055506002600085815260200190815260200160002060010160009054906101000a900473ffffffffffffffffffffffffffffffffffffffff1673ffffffffffffffffffffffffffffffffffffffff166108fc829081150290604051600060405180830381858888f19350505050158015611082573d6000803e3d6000fd5b506002806000868152602001908152602001600020600501819055505050919050565b60008160026000858152602001908152602001600020600b01819055506001905092915050565b600080600080600080600087146110e357866110e5565b425b945060026000898152602001908152602001600020600b015485101561110b5784611123565b60026000898152602001908152602001600020600b01545b935061114e600260008a8152602001908152602001600020600901548561150d90919063ffffffff16565b9250611179600260008a8152602001908152602001600020600a01548461155e90919063ffffffff16565b91506111cc600260008a8152602001908152602001600020600701546111be600260008c8152602001908152602001600020600401548561152690919063ffffffff16565b61150d90919063ffffffff16565b9050809550505050505092915050565b6000806002600085815260200190815260200160002060040154341015801561121b575060006002600086815260200190815260200160002060050154145b151561122657600080fd5b600083146112345782611236565b425b90506112613460026000878152602001908152602001600020600301546114f190919063ffffffff16565b600260008681526020019081526020016000206003018190555080600260008681526020019081526020016000206009018190555060016002600086815260200190815260200160002060050181905550336002600086815260200190815260200160002060010160006101000a81548173ffffffffffffffffffffffffffffffffffffffff021916908373ffffffffffffffffffffffffffffffffffffffff16021790555061135934600360003373ffffffffffffffffffffffffffffffffffffffff1673ffffffffffffffffffffffffffffffffffffffff168152602001908152602001600020546114f190919063ffffffff16565b600360003373ffffffffffffffffffffffffffffffffffffffff1673ffffffffffffffffffffffffffffffffffffffff16815260200190815260200160002081905550600191505092915050565b6000803373ffffffffffffffffffffffffffffffffffffffff166002600085815260200190815260200160002060000160009054906101000a900473ffffffffffffffffffffffffffffffffffffffff1673ffffffffffffffffffffffffffffffffffffffff1614151561141a57600080fd5b60028060008581526020019081526020016000206005018190555060026000848152602001908152602001600020600201549050600060026000858152602001908152602001600020600201819055506002600084815260200190815260200160002060000160009054906101000a900473ffffffffffffffffffffffffffffffffffffffff1673ffffffffffffffffffffffffffffffffffffffff166108fc829081150290604051600060405180830381858888f193505050501580156114e6573d6000803e3d6000fd5b506001915050919050565b6000818301905082811015151561150457fe5b80905092915050565b600082821115151561151b57fe5b818303905092915050565b6000808314156115395760009050611558565b818302905081838281151561154a57fe5b0414151561155457fe5b8090505b92915050565b6000818381151561156b57fe5b049050929150505600a165627a7a72305820ca5de85d0afead6fd705b6b4848adb87cec529356ec9c105aa8df953787630130029",
  "source": "pragma solidity ^0.4.24;\r\n\r\nimport \"../node_modules/zeppelin-solidity/contracts/math/SafeMath.sol\";\r\n\r\ncontract cdpcds {\r\n    //THIS IS AN ADDITION\r\n    using SafeMath for uint256;\r\n    \r\n    address cont = this;\r\n    uint testDate = block.timestamp;\r\n\r\n    struct CDS {\r\n        address maker;\r\n        address taker;\r\n        uint makerCollateral;\r\n        uint takerCollateral;\r\n        uint premium;\r\n        //0=unmatched, 1=matched+open, 2=closed\r\n        uint status;\r\n        uint orderID;\r\n        uint payed;\r\n        uint owed;\r\n        uint filledTime;\r\n        uint payPeriod;\r\n        uint expiration;\r\n        uint cdpID;\r\n        //uint expirationBounty;\r\n    }\r\n\r\n    mapping(uint => CDS)allCDSs;\r\n    mapping(address => uint)collateralBalances; // for testing purposes\r\n\r\n    uint currentID = 0; \r\n   \r\n    function makeCDSOrder(uint _premium)public payable {\r\n        require(msg.value >= 1e15);\r\n        uint collateral = msg.value;\r\n        allCDSs[currentID] = CDS(msg.sender, 0x0, collateral, 0, _premium, 0, currentID, 0, 0, 0, 7 days,now.add(35 days),2773);\r\n        currentID = currentID.add(1);\r\n        collateralBalances[msg.sender] = collateralBalances[msg.sender].add(msg.value);\r\n    }\r\n    //HELPER SHOW INFO FUNCTION::\r\n\r\n    function getInfo(uint _ID) public view returns (address, uint, address, uint, uint, uint, uint){\r\n        return(allCDSs[_ID].maker, allCDSs[_ID].makerCollateral, allCDSs[_ID].taker, allCDSs[_ID].takerCollateral, allCDSs[_ID].premium, allCDSs[_ID].payed, cont.balance);\r\n    }\r\n    //for testing...\r\n    function getCollateralBalance(address _addr)public view returns(uint){\r\n        return collateralBalances[_addr];\r\n    }\r\n    \r\n    //END HLPERS\r\n    function fillCDSOrder(uint _ID, uint _testDate)public payable returns (bool){\r\n        require (msg.value >= allCDSs[_ID].premium && allCDSs[_ID].status==0);\r\n        uint current = _testDate==0 ? block.timestamp : _testDate;\r\n        allCDSs[_ID].takerCollateral = allCDSs[_ID].takerCollateral.add(msg.value);\r\n        allCDSs[_ID].filledTime = current;\r\n        allCDSs[_ID].status = 1;\r\n        allCDSs[_ID].taker = msg.sender;\r\n        collateralBalances[msg.sender] =  collateralBalances[msg.sender].add(msg.value);\r\n        return true;\r\n    }\r\n\r\n    function cancelCDSOrder(uint _ID) public returns (bool){\r\n        require(allCDSs[_ID].maker == msg.sender);\r\n        allCDSs[_ID].status=2;\r\n        uint toTransfer = allCDSs[_ID].makerCollateral;\r\n        allCDSs[_ID].makerCollateral = 0;\r\n        allCDSs[_ID].maker.transfer(toTransfer);\r\n        return true;        \r\n    }\r\n    \r\n    function _calculateOwed(uint _ID, uint _testDate)public view returns(uint){\r\n        uint current = _testDate==0 ? block.timestamp : _testDate;\r\n        uint earlier = current >= allCDSs[_ID].expiration ? allCDSs[_ID].expiration : current;\r\n        uint delta = earlier.sub(allCDSs[_ID].filledTime);\r\n        uint owedPayments = delta.div(allCDSs[_ID].payPeriod);\r\n        uint outstanding = (owedPayments.mul(allCDSs[_ID].premium)).sub(allCDSs[_ID].payed);\r\n        return(outstanding);\r\n    }\r\n\r\n    function setSetExpirationDate(uint _ID,uint newDate)public returns(bool){\r\n        allCDSs[_ID].expiration = newDate;\r\n        return(true);\r\n    }\r\n\r\n    function close(uint _ID, uint _testDate)public {//\r\n        require(msg.sender == allCDSs[_ID].maker);\r\n        uint current = _testDate==0 ? block.timestamp : _testDate;\r\n        bool underCollateral = requestPremium(_ID, _testDate); //requestPremium requires no outstanding balance. stack is cleared and state is reversted. need another solution\r\n        require(allCDSs[_ID].status<2);\r\n        if(!underCollateral && (current < allCDSs[_ID].expiration)){\r\n            uint earlyTermFee = (allCDSs[_ID].makerCollateral.mul(13)).div(100);\r\n            allCDSs[_ID].makerCollateral = allCDSs[_ID].makerCollateral.sub(earlyTermFee);\r\n            allCDSs[_ID].takerCollateral = allCDSs[_ID].takerCollateral.add(earlyTermFee);                              \r\n        }\r\n        //msg.sender.transfer(allCDSs[_ID].expirationBounty);\r\n        allCDSs[_ID].status=2;\r\n        uint takerPayout = allCDSs[_ID].takerCollateral;\r\n        allCDSs[_ID].takerCollateral = 0;\r\n        allCDSs[_ID].taker.transfer(takerPayout);\r\n        uint makerPayout = allCDSs[_ID].makerCollateral;\r\n        allCDSs[_ID].makerCollateral = 0;\r\n        allCDSs[_ID].maker.transfer(makerPayout);\r\n    }\r\n\r\n    function requestPremium(uint _ID, uint _testDate)public returns(bool){\r\n        uint owed = _calculateOwed(_ID, _testDate);\r\n        //add closed case\r\n        //uint owed = allCDSs[_ID].premium;\r\n        uint collateral = allCDSs[_ID].takerCollateral;\r\n        uint makerPayout=0;\r\n        uint takerPayout=0;\r\n        \r\n        if(owed==0) return(false);\r\n        if(owed > collateral){\r\n            allCDSs[_ID].status=2;\r\n            allCDSs[_ID].takerCollateral = 0;\r\n            makerPayout = (allCDSs[_ID].makerCollateral).add(collateral);\r\n            allCDSs[_ID].makerCollateral = 0;\r\n            allCDSs[_ID].maker.transfer(makerPayout);\r\n            allCDSs[_ID].payed = allCDSs[_ID].payed.add(makerPayout);\r\n            return(true);\t\t\t             \r\n        }\r\n        if(owed <= collateral){//Fix Later\r\n            allCDSs[_ID].takerCollateral = allCDSs[_ID].takerCollateral.sub(owed);\r\n            allCDSs[_ID].payed = allCDSs[_ID].payed.add(owed);\r\n            allCDSs[_ID].maker.transfer(owed);\r\n            if(_testDate>=allCDSs[_ID].expiration) {\r\n                allCDSs[_ID].status=2;\r\n                makerPayout = allCDSs[_ID].makerCollateral;\r\n                takerPayout = allCDSs[_ID].takerCollateral;\r\n                allCDSs[_ID].makerCollateral=0;\r\n                allCDSs[_ID].takerCollateral=0;\r\n                allCDSs[_ID].maker.transfer(makerPayout);\r\n                allCDSs[_ID].taker.transfer(takerPayout);\r\n            }\r\n            return(false);\r\n        }\r\n    }\r\n\r\n    function reportLiquidation(uint _ID)public returns(bool){\r\n        //add closed case\r\n        uint collateral = allCDSs[_ID].makerCollateral;\r\n        allCDSs[_ID].takerCollateral = collateral.add(allCDSs[_ID].takerCollateral);\r\n        allCDSs[_ID].makerCollateral = 0;\r\n        uint takerPayout = allCDSs[_ID].takerCollateral;\r\n        allCDSs[_ID].takerCollateral = 0;\r\n        allCDSs[_ID].taker.transfer(takerPayout);\r\n        allCDSs[_ID].status=2;\r\n    }\r\n    \r\n\r\n    /* function addMakerCollateral(uint _ID)public payable returns (bool){\r\n        require(msg.value >=0);\r\n        require(msg.sender == allCDSs[_ID].maker);\r\n        allCDSs[_ID].makerCollateral.add(msg.value);\r\n    }\r\n\r\n    function addMakerCollateralTo(uint _ID, address _to) public payable returns(bool){\r\n        require(msg.value >=0);\r\n        require(_to == allCDSs[_ID].maker);\r\n        allCDSs[_ID].makerCollateral.add(msg.value);\r\n    }\r\n    \r\n    function addTakerCollateral(uint _ID)public payable returns (bool){\r\n        require(msg.value >=0);\r\n        require(msg.sender == allCDSs[_ID].taker);\r\n        allCDSs[_ID].takerCollateral.add(msg.value);\r\n    }\r\n\r\n    function addTakerCollateralTo(uint _ID, address _to) public payable returns(bool){\r\n        require(msg.value >=0);\r\n        require(_to == allCDSs[_ID].taker);\r\n        allCDSs[_ID].takerCollateral.add(msg.value);\r\n    } */\r\n\r\n    //TODO: finish Collateral balance tracking for testing (removed or added where apropreate)\r\n\r\n}",
  "sourcePath": "C:\\Users\\nicholas\\desktop\\ethsf2\\cdpcds\\contracts\\cdpcds.sol",
  "compiler": {
    "name": "solc",
    "version": "0.4.24+commit.e67f0147.Emscripten.clang"
  },
  "schemaVersion": "2.0.0",
  "updatedAt": "2018-10-11T13:51:24.747Z"
}