{
  "contractName": "MyContract",
  "abi": [
    {
      "constant": true,
      "inputs": [],
      "name": "mynumber",
      "outputs": [
        {
          "name": "",
          "type": "uint256"
        }
      ],
      "payable": false,
      "stateMutability": "view",
      "type": "function"
    },
    {
      "inputs": [],
      "payable": false,
      "stateMutability": "nonpayable",
      "type": "constructor"
    },
    {
      "constant": false,
      "inputs": [
        {
          "name": "mynum",
          "type": "uint256"
        }
      ],
      "name": "storeNum",
      "outputs": [
        {
          "name": "success",
          "type": "bool"
        }
      ],
      "payable": false,
      "stateMutability": "nonpayable",
      "type": "function"
    }
  ],
  "bytecode": "0x608060405234801561001057600080fd5b50601860008190555061017d806100286000396000f30060806040526004361061004c576000357c0100000000000000000000000000000000000000000000000000000000900463ffffffff1680636bf78903146100515780639a67c8b11461007c575b600080fd5b34801561005d57600080fd5b506100666100c1565b6040518082815260200191505060405180910390f35b34801561008857600080fd5b506100a7600480360381019080803590602001909291905050506100c7565b604051808215151515815260200191505060405180910390f35b60005481565b6000600a82111515610141576040517f08c379a000000000000000000000000000000000000000000000000000000000815260040180806020018281038252600c8152602001807f776173206e6f74203e203130000000000000000000000000000000000000000081525060200191505060405180910390fd5b81600081905550600190509190505600a165627a7a72305820c7f085456ba1e5241e29141f130555537e0e165f50f6c392c37ae3adac4c058f0029",
  "source": "pragma solidity ^0.4.24; \r\n\r\ncontract MyContract {\r\n    uint public mynumber; \r\n    /* Modified simple storage function. Only stores numbers greater than 10. */\r\n\r\n    constructor()public {\r\n        mynumber = 24; \r\n    }\r\n\r\n    function storeNum(uint mynum)public returns (bool success) {\r\n        require(mynum > 10, \"was not > 10\");\r\n        mynumber = mynum; \r\n        return true;    \r\n    }\r\n}",
  "sourcePath": "C:\\Users\\nicholas\\Desktop\\ethsf2\\contracts\\MyContract.sol",
  "compiler": {
    "name": "solc",
    "version": "0.4.24+commit.e67f0147.Emscripten.clang"
  },
  "schemaVersion": "2.0.1",
  "updatedAt": "2018-10-10T04:15:53.719Z"
}