{
  "contractName": "testing",
  "abi": [
    {
      "constant": false,
      "inputs": [
        {
          "name": "_payment",
          "type": "uint256"
        }
      ],
      "name": "make",
      "outputs": [],
      "payable": true,
      "stateMutability": "payable",
      "type": "function"
    },
    {
      "constant": false,
      "inputs": [
        {
          "name": "_ID",
          "type": "uint256"
        }
      ],
      "name": "fill",
      "outputs": [],
      "payable": true,
      "stateMutability": "payable",
      "type": "function"
    },
    {
      "constant": false,
      "inputs": [
        {
          "name": "_ID",
          "type": "uint256"
        }
      ],
      "name": "reportLiquidation",
      "outputs": [
        {
          "name": "",
          "type": "bool"
        }
      ],
      "payable": false,
      "stateMutability": "nonpayable",
      "type": "function"
    },
    {
      "constant": true,
      "inputs": [
        {
          "name": "_ID",
          "type": "uint256"
        }
      ],
      "name": "getInfo",
      "outputs": [
        {
          "name": "",
          "type": "uint256"
        },
        {
          "name": "",
          "type": "uint256"
        },
        {
          "name": "",
          "type": "uint256"
        },
        {
          "name": "",
          "type": "uint256"
        },
        {
          "name": "",
          "type": "uint256"
        }
      ],
      "payable": false,
      "stateMutability": "view",
      "type": "function"
    },
    {
      "constant": false,
      "inputs": [
        {
          "name": "_ID",
          "type": "uint256"
        }
      ],
      "name": "requestPremium",
      "outputs": [
        {
          "name": "",
          "type": "bool"
        }
      ],
      "payable": false,
      "stateMutability": "nonpayable",
      "type": "function"
    }
  ],
  "bytecode": "0x6080604052306000806101000a81548173ffffffffffffffffffffffffffffffffffffffff021916908373ffffffffffffffffffffffffffffffffffffffff160217905550600060025534801561005557600080fd5b50610894806100656000396000f30060806040526004361061006d576000357c0100000000000000000000000000000000000000000000000000000000900463ffffffff1680631a3cd59a146100725780633fda5389146100cf578063516517ab146100ef5780635ae097901461010f578063d3052cb714610154575b600080fd5b34801561007e57600080fd5b5061009d60048036038101908080359060200190929190505050610199565b604051808681526020018581526020018481526020018381526020018281526020019550505050505060405180910390f35b6100ed60048036038101908080359060200190929190505050610249565b005b61010d6004803603810190808035906020019092919050505061032d565b005b34801561011b57600080fd5b5061013a600480360381019080803590602001909291905050506104b9565b604051808215151515815260200191505060405180910390f35b34801561016057600080fd5b5061017f600480360381019080803590602001909291905050506105ec565b604051808215151515815260200191505060405180910390f35b6000806000806000600160008781526020019081526020016000206002015460016000888152602001908152602001600020600301546001600089815260200190815260200160002060040154600160008a8152602001908152602001600020600601546000809054906101000a900473ffffffffffffffffffffffffffffffffffffffff1673ffffffffffffffffffffffffffffffffffffffff16319450945094509450945091939590929450565b6001600082815260200190815260200160002060000160009054906101000a900473ffffffffffffffffffffffffffffffffffffffff1673ffffffffffffffffffffffffffffffffffffffff163373ffffffffffffffffffffffffffffffffffffffff16141515156102ba57600080fd5b336001600083815260200190815260200160002060010160006101000a81548173ffffffffffffffffffffffffffffffffffffffff021916908373ffffffffffffffffffffffffffffffffffffffff16021790555034600160008381526020019081526020016000206003018190555050565b67016345785d8a00003411151561034357600080fd5b610120604051908101604052803373ffffffffffffffffffffffffffffffffffffffff168152602001600073ffffffffffffffffffffffffffffffffffffffff16815260200134815260200160008152602001828152602001600081526020016000815260200162093a808152602001600081525060016000600254815260200190815260200160002060008201518160000160006101000a81548173ffffffffffffffffffffffffffffffffffffffff021916908373ffffffffffffffffffffffffffffffffffffffff16021790555060208201518160010160006101000a81548173ffffffffffffffffffffffffffffffffffffffff021916908373ffffffffffffffffffffffffffffffffffffffff16021790555060408201518160020155606082015181600301556080820151816004015560a0820151816005015560c0820151816006015560e082015181600701556101008201518160080155905050600160026000828254019250508190555050565b6000806000600160008581526020019081526020016000206002015491508160016000868152602001908152602001600020600301600082825401925050819055506000600160008681526020019081526020016000206002018190555060016000858152602001908152602001600020600301549050600060016000868152602001908152602001600020600301819055506001600085815260200190815260200160002060010160009054906101000a900473ffffffffffffffffffffffffffffffffffffffff1673ffffffffffffffffffffffffffffffffffffffff166108fc829081150290604051600060405180830381858888f193505050501580156105c8573d6000803e3d6000fd5b50600260016000868152602001908152602001600020600801819055505050919050565b60008060008060006105fd866107ef565b935060016000878152602001908152602001600020600601549250828403915060016000878152602001908152602001600020600301549050828411151561064857600194506107e6565b8181101515610716578160016000888152602001908152602001600020600301600082825403925050819055508160016000888152602001908152602001600020600601819055506001600087815260200190815260200160002060000160009054906101000a900473ffffffffffffffffffffffffffffffffffffffff1673ffffffffffffffffffffffffffffffffffffffff166108fc839081150290604051600060405180830381858888f1935050505015801561070c573d6000803e3d6000fd5b50600194506107e6565b818110156107e55780600160008881526020019081526020016000206006018190555060008111156107c0576001600087815260200190815260200160002060000160009054906101000a900473ffffffffffffffffffffffffffffffffffffffff1673ffffffffffffffffffffffffffffffffffffffff166108fc829081150290604051600060405180830381858888f193505050501580156107be573d6000803e3d6000fd5b505b60006001600088815260200190815260200160002060030181905550600094506107e6565b5b50505050919050565b6000806000806000429350600160008781526020019081526020016000206005015484039250620151806001600088815260200190815260200160002060070154028381151561083b57fe5b046001019150600160008781526020019081526020016000206004015482029050809450505050509190505600a165627a7a723058205a421f10725678373ea4088fb6a502871ff932c41a65adde0152b460ac6269780029",
  "source": "pragma solidity ^0.4.24;\n\ncontract testing{\n\n   struct cds{\n       address maker;\n       address taker;\n       uint makerCollateral;\n       uint takerCollateral;\n       uint payment;\n       uint filledTime;\n       uint paid;\n       uint payPeriod;\n       //0=unmatched, 1=matched+open, 2=closed\n       uint status;\n   }\n   address cont = this;\n\n   mapping(uint => cds)CDSs;\n   uint currentID = 0;\n\n   function make(uint _payment)public payable {\n       require(msg.value > 1e17);\n       CDSs[currentID] = cds(msg.sender, 0x0, msg.value, 0, _payment,  0, 0, 7 days,0);\n       currentID += 1;\n   }\n\n   function fill(uint _ID)public payable {\n       //require(msg.value >= CDSs[_ID].payment);\n       require(msg.sender != CDSs[_ID].maker);\n       CDSs[_ID].taker = msg.sender;\n       CDSs[_ID].takerCollateral = msg.value;\n   }\n\n    function reportLiquidation(uint _ID)public returns(bool){\n        uint collateral = CDSs[_ID].makerCollateral;\n        CDSs[_ID].takerCollateral += collateral;\n        CDSs[_ID].makerCollateral = 0;\n        uint takerPayout = CDSs[_ID].takerCollateral;\n        CDSs[_ID].takerCollateral = 0;\n        CDSs[_ID].taker.transfer(takerPayout);\n        CDSs[_ID].status=2;\n    }\n\n   function getInfo(uint _ID) public view returns (uint, uint, uint, uint, uint){\n       return(CDSs[_ID].makerCollateral,CDSs[_ID].takerCollateral, CDSs[_ID].payment, CDSs[_ID].paid, cont.balance);\n   }\n\n    function _calculateOwed(uint _ID)internal view returns(uint){\n       //uint owed = CDSs[_ID].payment+CDSs[_ID].paid;\n       uint current = block.timestamp;\n       uint delta = current - CDSs[_ID].filledTime;\n       uint owedPayments = 1 + (uint(delta)/(uint(CDSs[_ID].payPeriod)*(86400)));\n       uint owed = owedPayments*(CDSs[_ID].payment);\n       return owed;\n   }\n\n      function requestPremium(uint _ID)public returns(bool){\n       uint owed = _calculateOwed(_ID);\n       uint paid = CDSs[_ID].paid;\n       uint outstanding = owed - paid;\n       uint collateral = CDSs[_ID].takerCollateral;\n\n       if(owed<=paid) return(true);\n       else if(collateral>=outstanding){\n           CDSs[_ID].takerCollateral -= outstanding;\n           CDSs[_ID].paid = outstanding;\n           CDSs[_ID].maker.transfer(outstanding);\n           return(true);\n       }\n       else if(collateral<outstanding){\n           CDSs[_ID].paid = collateral;\n           if(collateral>0) CDSs[_ID].maker.transfer(collateral);\n           CDSs[_ID].takerCollateral = 0;\n           return(false);\n       }\n\n   }\n\n}",
  "sourcePath": "C:\\Users\\nicholas\\Desktop\\ethsf2\\contracts\\remix.sol",
  "compiler": {
    "name": "solc",
    "version": "0.4.24+commit.e67f0147.Emscripten.clang"
  },
  "schemaVersion": "2.0.1",
  "updatedAt": "2018-10-11T04:55:37.750Z"
}